S010000050726F6A6574616F2E73726563D0
S214400000B83E0020C9124000C5124000C51240004C
S214400010C5124000C5124000C51240000000000056
S214400020000000000000000000000000C512400074
S214400030C512400000000000C5124000C512400036
S214400040C5124000C5124000C5124000C51240000F
S214400050C5124000C5124000C5124000C5124000FF
S214400060C5124000C5124000000000004D1140007F
S2144000706111400075114000C5124000C512400095
S2144000800000000000000000C5124000C5124000FD
S214400090C5124000C5124000C51240000917400076
S2144000A0C5124000C5124000C5124000C5124000AF
S2144000B0C51240009D174000C5124000C5124000C2
S2144000C0C5124000C5124000C512400010B5054C90
S2144000D0237833B9044B13B10448AFF300800123AF
S2144000E0237010BDE0090020000000006C7B40003B
S2144000F00C4B43B10C480D4910B5AFF300800C488B
S214400100036823B910BD0A48036833B97047094BE2
S214400110002BF7D0BDE810401847064B002BF5D013
S214400120184700BF000000006C7B4000E409002038
S2144001306C7B4000000000002DE9F04180B90C4681
S2144001409046002A0FDD8F18084E094D306821462C
S2144001502B6898470134BC42F8D14046BDE8F08150
S2144001604FF0FF38F9E78046F7E700BF740E0020EF
S2144001706C0E0020F0B482B0C0F11100102828BFE9
S2144001801020002808BF01200021104D4FF40056D3
S214400190374618246F630194019B5A1E0192002B28
S2144001A0FAD12E630194019B5A1E0192002BFAD17C
S2144001B001318142EED34FF400330193019B5A1E26
S2144001C00192002BFAD102B0F0BC704700120E40EC
S2144001D082B04FF40052064B5A634FF400330193FB
S2144001E0019B5A1E0192002BFAD102B0704700BF05
S2144001F000120E400B4B1B78012B02D0022B07D06F
S21440020070474FF0C24300221A7022221A7070477D
S2144002104FF0C2432C221A7000221A703C221A70E9
S214400220EEE700BFFC090020C0F30742034B1A70FC
S214400230C0F307221A70C0B21870704702000061FF
S2144002402DE9F8430746884631F0070923D004468F
S2144002500026124D2068A8476068A847A068A847AF
S214400260E068A8472069A8476069A847A069A847EA
S214400270E069A847083620344E45EBD3464508D2B9
S21440028007EB8607054D57F8040BA8470136B045DF
S214400290F9D1BDE8F8834E46F0E700BF290240009A
S2144002A04FF0C24300221A7018700A0A02331A70BE
S2144002B0C9B219707047000010B44FF0C243002412
S2144002C01C7018704AB14B1E501E51FA80F10448FB
S2144002D013F8012F02708B42FAD110BC704700BF52
S2144002E00200006182B000230193019B984211D91D
S2144002F00021094A0191019B934205D8019B013395
S2144003000193019B9342F9D9019B01330193019BD1
S2144003108342EFD302B070479F86010030B4154C3D
S21440032024680568A54224BF04F1FF3505601568BA
S214400330AC429CBF04F1FF3414600F4C24680D6837
S214400340A54224BF04F1FF350D601D68AC429CBF3A
S21440035004F1FF341C6004681568AC4284BF056035
S21440036014600A681868824284BF08601A6030BC0D
S214400370704700BF000000200400002082B04FF00D
S214400380C24300221A70D3221A701A490B788DF88D
S21440039000300B788DF801300B78DAB28DF80220F9
S2144003A00B78DBB28DF8033003EB02239BB249F2A5
S2144003B04132934214D04FF0C24300221A701A7052
S2144003C00C490B78DAB28DF800200B7803EB022349
S2144003D09BB249F22532934207D0012002B07047C3
S2144003E00222054B1A700020F8E70122024B1A70D1
S2144003F00020F3E702000061FC09002008B5094B25
S2144004001B78012B02D0022B06D008BD40F23311D8
S2144004100720054B984708BD002211462920034B6C
S2144004209847F2E7FC090020A1024000B9024000CC
S214400430044A131F02F56F7243F8040F9342FBD130
S214400440704700BF000A00202DE9F04182B00C46FC
S21440045017461E46234B1B78012B04D0022B17D081
S21440046002B0BDE8F08185B229465020DFF87C8096
S214400470C047781E284481B25120C047A4B22146C6
S2144004805220C047013E3444A1B25320C047E7E75C
S214400490030A8DF80430C2B28DF805207B1E18443E
S2144004A0000A8DF806001F4617448DF80770042290
S2144004B00DEB02012A200C4DA847230A8DF8043084
S2144004C0E2B28DF80520731E1C44240A8DF80640BF
S2144004D01E4616448DF8076004220DEB02012B20C1
S2144004E0A847BDE7FC090020B9024000A102400031
S2144004F038B5074B1B78012B00D038BD0C4601465B
S2144005002020044DA84721462120A847F5E700BFF4
S214400510FC090020A10240002DE9F04383B00646C6
S214400520AC4B9847002840F05281F022AA4B1A6004
S2144005304FF4A072A94B1A60A94B1B78012B06D02A
S214400540022B00F0B580012003B0BDE8F0833321D4
S2144005500720A44CA04700211020A04701210020DE
S214400560A0474FF480710120A0474FF4E06102207D
S214400570A04700210420A04740F207210820A047BA
S21440058000210920A04700210A20A04700210C2076
S214400590A04700210D20A04700210F20A0470021A2
S2144005A01020A04700211120A04700211220A0477C
S2144005B000211320A047C8208B4DA84741F2902128
S2144005C01020A04740F227211120A0473220A847FC
S2144005D01B211220A0473220A8474FF488511320F1
S2144005E0A04719212920A0470D212B20A0473220C3
S2144005F0A84700213020A0474FF401713120A04782
S2144006004FF400713220A04707213520A04741F221
S21440061004413620A04740F205713720A04740F2FB
S21440062005313820A04740F207713920A04740F2F4
S21440063001713C20A0470E213D20A0474DF21001FD
S2144006400320A0474FF427416020A04701216120A6
S214400650A04700216A20A04700218020A047002113
S2144006608120A04700218220A04700218320A04768
S21440067000218420A04700218520A04710219020FB
S214400680A0474FF4C0619220A0474FF48871952050
S214400690A0477368326800210846544CA047B068AB
S2144006A0534B984700210846524B984700204BE74B
S2144006B039238DF800302C238DF8013000248DF836
S2144006C0024034238DF8033002278DF8047005224B
S2144006D06946CB20484DA8478DF80040AA238DF8A0
S2144006E00130B0238DF8023003226946CF20A84758
S2144006F030238DF8003001226946F720A84725238D
S2144007008DF8003001226946C020A8474FF01109F5
S2144007108DF8009001226946C120A8475C238DF8D9
S21440072000304C238DF801303A466946C520A8472C
S21440073094238DF8003001226946C720A8478523B8
S2144007408DF800304FF001088DF8018078238DF841
S214400750023003226946E820A8478DF800408DF80D
S21440076001403A466946EA20A84748238DF80030BB
S214400770424669463620A84706238DF80030424652
S21440078069463A20A8478DF8007082238DF80130DC
S21440079027238DF802308DF8034004226946B620A0
S2144007A0A8477368326821462046104FB847B0685D
S2144007B00F4B9847224669464846A8470A200A4BA8
S2144007C09847224669462920A8472046BCE601208D
S2144007D0BAE600BF7D034000000000200400002071
S2144007E0FC090020A1024000E50240004904400008
S2144007F031044000F1044000B9024000164B1B682B
S214400800834224D9154B1B688B4222D910B5144B12
S2144008101B78012B03D0022B0DD0002010BD89B2CF
S21440082080B2104B9847104B9847104B1868104BA7
S2144008309847002010BD00231A460E4CA0470A4B8E
S21440084098470A4B18680A4B9847002010BD01206D
S21440085070470120704700BF0000002004000020C1
S214400860FC090020F1044000F5014000000A002089
S21440087029024000490440002DE9F04184B003902D
S2144008800291019204AA42F8103D134601AA02A919
S21440089003A8224CA04703980299009B0133019A73
S2144008A001325B1A121A1E4CA047BDF80810BDF85C
S2144008B00C001C4B98471C4B9847039A019B9A1A6E
S2144008C0009B03F10108029BA8EB030802FB088883
S2144008D0164BA3FB0823DB0953B15C1E144FF026CE
S2144008E0144D31463846A847013CB4F1FF3FF8D195
S2144008F00E49A1FB0831C909C1EB0111A8EB011152
S2144009000B480C4B98470C4B1B680C4A126800214E
S2144009100846034CA04704B0BDE8F0811D034000E4
S21440092049044000F1044000F50140008988888869
S214400930000A002041024000040000200000002081
S2144009402DE9F04F85B0039002921378002B48D0E3
S2144009508B460190DFF8948033E00BF1100B039B3D
S214400960019329E0013CB4F1FF3F09D02B782341A5
S21440097013F0010FF6D0AAEB04013046C047F1E76A
S21440098007240BF10F0902E0013C012C09D07B78CB
S214400990234113F0010FF7D0A9EB04013046C047BE
S2144009A0F2E702350136009BB34202D007242F46B9
S2144009B0DCE7019B0C330193029A12F8013F029246
S2144009C07BB10A2BC9D003EB8303074D05EB8303AA
S2144009D0A3F52075019E33460A3300930BF1070AB0
S2144009E0E4E705B0BDE8F08FE4704000FD07400046
S2144009F030B4012404600024446040F20225C0F86C
S214400A002051C0F80441C0F8144145685200B1FB7B
S214400A10F2F2013A120292B22B431A434260204647
S214400A2030BC70474368D201D2B219430A43426091
S214400A30704710B44468090601F0706121430A43C8
S214400A40190701F040511143416010BC7047022322
S214400A5003607047012303FA01F1016170470F29D3
S214400A609ABF503050F821000020704741627047CE
S214400A70006B704709014250704700EB01114A6015
S214400A80704700EB01118A60704700EB0111CA60A5
S214400A90704710B489014318022444504FF0FF3188
S214400AA09962196A5A6010BC704789010523435001
S214400AB0704700EB8111CA61704700EB81114A62B2
S214400AC0704700EB8111086A7047F0B486B0022484
S214400AD001940824029420240394802404940A9CBD
S214400AE0E40B0594B0EB510F14D84C0CA04217D22F
S214400AF0012501AF57F82540B1FBF4F4260C84429B
S214400B000AD386420DD90135052DF3D1002006B013
S214400B10F0BC70470020FAE70020F8E70120F6E72F
S214400B2000252AB106A901EB850151F8141C116075
S214400B30002BF3D01D600120E9E7436913F0020F54
S214400B401DBFC1F30801C161002001207047436901
S214400B5013F0010F05D08369C3F308030B60002030
S214400B6070470120704700000138022815D82DE94B
S214400B70F0410E4614469AB10D46DFF838800C4FC9
S214400B80D8F8000015F8011B3B68984700280ADB98
S214400B90A81B013CF4D1BDE8F0814FF0FF30704710
S214400BA01046BDE8F0814FF0FF30BDE8F08100BF51
S214400BB0700E0020740E002010B4AC2303600B6847
S214400BC04A68B3FBF2F31B095C1E4FF6FE72944272
S214400BD00BD803628B68436040F20223C0F8203192
S214400BE050230360002010BC70470120FBE7436998
S214400BF013F0020F1ABFC1610020012070474369FD
S214400C0013F0010F1DBF83690B7000200120704751
S214400C1010B50E480E4B98473E2100200D4B984786
S214400C200D4CA0470028FCD00C4B98470C4A0D4B67
S214400C309A620D4CA0470028FCD010200B4B9847DA
S214400C400B4B98470148024B984710BD000E2707AC
S214400C5085144000ED114000411240005112400002
S214400C60013F132000040E406112400089114000ED
S214400C707513400038B54FF40042464B5A600B207F
S214400C80454CA0470C20A0470D20A0474FF0605190
S214400C901320424CA0474FF060511420A0474049D3
S214400CA02320A0473F494C20A0474FF000624FF416
S214400CB0C0613D483D4B98474FF080510020A047CB
S214400CC04FF080510820A0474FF080515220A04757
S214400CD04FF000610C20A0474FF000610D20A04768
S214400CE04FF000610E20A0474FF000610B20A04758
S214400CF04FF000611520A0474FF000611620A04736
S214400D004FF040511720A0471720294B9847294DB0
S214400D1029464020A04729464120A0472946422050
S214400D20A04729464320A04729464420A0472946B5
S214400D304520A04729464620A04729464720A047A9
S214400D4029464B20A04729464820A04729464F2001
S214400D50A04729465320A0474FF040514D20A0477A
S214400D6005F1005529461020A04729461120A047E6
S214400D704FF000610C20A0474FF000610D20A047C7
S214400D804FF000610E20A0474FF000610B20A047B7
S214400D9038BD00BF50140E4071124000ED0E4000AA
S214400DA07900002859000028000E0E400D10400023
S214400DB0B10E400001000008016370474163704770
S214400DC04264B1F1C05F39D013D8B1F1006F25D07D
S214400DD0B1F1805F0AD1036F13430367436F416FDE
S214400DE00B4023EA02034367426070470029FBD169
S214400DF07047B1F1205F20D009D8B1F1005FF3D140
S214400E00036F13430367436F13434367ECE7B1F144
S214400E10405F12D0B1F1605F0FD0E5E710B4016FCC
S214400E20046FD34321401C4619400167436F416F0E
S214400E300B4023404367426010BC7047036F016F0E
S214400E400B4023EA02030367436F13434367CBE732
S214400E50416412F0010F14BF4166016612F00A0F9A
S214400E6014BF0162416212F0020F07D112F0080F60
S214400E7018BFC0F88410416101607047C0F8801008
S214400E80F9E710B4019C416444B9016643B1016579
S214400E9042B941630161016010BC70474166F5E7A5
S214400EA04165F5E70163F5E7C06C7047806C7047B5
S214400EB0430903F5001303F207735B0200F01F00BB
S214400EC0012202FA00F058637047430903F5001305
S214400ED003F207735B02996B00F01F0201209040FB
S214400EE0014214BF586318637047000070B582B063
S214400EF00D46430903F5001303F207735C0201F045
S214400F00F043B3F1005F53D00AD8B3F1805F2DD0E1
S214400F10B3F1C05F3BD0B3F1006F15D0002023E0A3
S214400F20B3F1405F55D0B3F1605F52D0B3F1205F6C
S214400F30F4D100F01F0101262A4606FA01F12046A8
S214400F402F4B984730460FE000F01F0001268640A2
S214400F5032464FF0006120462A4B984715F0010F65
S214400F6014BF66662666012002B070BD00F01F0002
S214400F700126864032464FF080512046214B984706
S214400F8015F0010F14BF666626660120ECE700F0F8
S214400F901F000126864032464FF0C0512046194B6E
S214400FA0984715F0010F14BF666626660120DBE7FA
S214400FB000F01F000126864032464FF00051204682
S214400FC0104B984715F0010F14BF66662666012041
S214400FD0CAE705F0605200F01F01012605EA060345
S214400FE00093C5F38003B2F1605F14BF0022012274
S214400FF006FA01F12046044CA0473046B4E700BF4D
S214401000510E4000C10D4000830E400070B582B0C6
S21440101005460E46144602F0F043B3F1005F3DD05D
S2144010200AD8B3F1805F21D0B3F1C05F2AD0B3F1C4
S214401030006F0ED0002017E0B3F1405F3AD0B3F116
S214401040605F37D0B3F1205FF4D1234B984701203F
S2144010500AE00A464FF00061204B984714F0010F13
S21440106014BF6E662E66012002B070BD0A464FF071
S21440107080511A4B984714F0010F14BF6E662E66C7
S2144010800120F1E70A464FF0C051144B984714F040
S214401090010F14BF6E662E660120E5E70A464FF044
S2144010A000510E4B984714F0010F14BF6E662E6623
S2144010B00120D9E704F0605204F001030093C4F322
S2144010C08003B2F1605F14BF0022012231462846F9
S2144010D0034CA0470120C7E7510E4000C10D400019
S2144010E0830E40002DE9F84381460F46124B984741
S2144010F005464846114B9847054013D0104C04F11E
S214401100600603E0B4420DD010345DB12068B842AA
S214401110F8D161682942F5D0E3689847636825EAC4
S2144011200305EFE7074B1B6823B1074B1B680BB162
S21440113048469847BDE8F883A90E4000AD0E4000EB
S214401140C00D0020780E0020300E002008B50B2180
S2144011500148024B984708BD000E0E40E51040007F
S21440116008B50C210148024B984708BD00100E40B8
S214401170E510400008B50D210148024B984708BDD0
S21440118000120E40E5104000174A136B23F0700320
S21440119018431063936E13F0080F0AD14FF40063A0
S2144011A011498A6E12F0080F03D1013BF9D1012094
S2144011B070470D4A136B23F0030343F00203136397
S2144011C0936E13F0080F0AD14FF4006306498A6EF7
S2144011D012F0080F05D1013BF9D1012070470020DD
S2144011E070470020704700BF00040E40C8B9114A3F
S2144011F0136A090289B223F45C1323F0030343F411
S2144012005C1343F001030B431362936E13F0010F1C
S214401210FBD0084A136A43F09B7343F4803313624F
S214401220704704490B6A044A1A40044B13430B6246
S214401230704700BF00040E40FCFFC8FE02003701A6
S214401240024B986E00F48030704700BF00040E409A
S2144012504FF00052014B9A62704700BF00040E40A8
S214401260024B986E00F00200704700BF00040E402C
S21440127022281ED81F280CD8114B9A690123834078
S214401280934318D0012303FA00F00D4B1861002059
S214401290704720380A4BD3F80821012383409343F4
S2144012A00BD0012303FA00F0054BC3F800010020E1
S2144012B0704701207047002070470020704700BFED
S2144012C000040E40FEE7000008B5214B214A9A4232
S2144012D028D9214B1E4A9A420CD2013B9B1A23F036
S2144012E00303043313441B4951F8040B42F8040B20
S2144012F09A42F9D100BF194B194A9A420AD2013B89
S2144013009B1A23F0030304331344002142F8041BC2
S2144013109A42FBD1134B144A9A60144B9847144B8D
S2144013209847FEE70A4B0B4A9A42E3D20A4B0848D4
S214401330181A1146043A02440028DBD0C1F10401D1
S21440134052F8040943F8040DCA42F9D1D2E700BF67
S214401350000000206C7B4000E0090020B40E002016
S214401360E009002000ED00E000004000D11B4000F6
S214401370F51A40003C4B1B6B03F00303032B0ED8BF
S214401380DFE803F0021C3838384B5B6913F0800FF7
S21440139014BF4FF400424FF4FA42354B1A60324BBA
S2144013A01B6B03F07003702B55D02F4B1A6B3049D4
S2144013B0C2F302120B68D3400B6070472A4B1B6A7D
S2144013C013F0807F03D02B4A294B1A60E7E72A4A5E
S2144013D0274B1A60244B1B6A03F07003102B05D072
S2144013E0202BDCD1234A224B1A60D8E7234A204BD5
S2144013F01A60D4E71C4B1B6A13F0807F18D01D4A36
S2144014001B4B1A60184B1B6B03F00303022B164A48
S21440141007BF916A926AD16AD26A1548C1F30A41F7
S214401420036801FB0333D2B2B3FBF2F30360B6E7C3
S214401430114A0F4B1A600C4B1B6A03F07003102BBB
S21440144005D0202BDED10B4A094B1A60DAE70B4A4F
S214401450074B1A60D6E7064A13680949A1FB0313EF
S2144014605B081360704700BF00040E4010140E4027
S21440147008000020001BB70000093D0000127A005B
S214401480ABAAAAAA1A4B984214D91A4B984219D911
S214401490194B98421DD9194B984221D9184B98425E
S2144014A094BF4FF00423174B174A136002F500729F
S2144014B0136070474FF08063134A136002F5007262
S2144014C013607047114B104A136002F500721360A8
S2144014D070470F4B0C4A136002F50072136070475A
S2144014E00C4B094A136002F500721360704700BF48
S2144014F0FF2C3101FF596202FF869303FFB3C404F9
S214401500FFE0F50500050004000A0E400001000457
S21440151000020004000300040A4B1B6853B1094B49
S2144015201B681A180849914208DB1046054A1060A5
S21440153018467047054A034B1A60F0E74FF0FF30F5
S214401540704700BF340E0020FC7F0220B83E0020CB
S2144015504FF0FF3070474FF400534B600020704709
S2144015600120704700207047F0B583B005460C4612
S21440157000230193184B98420AD0184B98420FD03C
S214401580174B984214D0174B9D421BD003B0F0BD6A
S2144015901F46154E21463846B0470028FAD1F2E796
S2144015A01E46114D21463046A8470028FAD1EDE7A1
S2144015B01E460E4D01A93046A8470028FAD1019B89
S2144015C02370E3E71E46094D01A93046A847002888
S2144015D0FAD1019B2370D9E700060E4000080E4062
S2144015E00040024000800240FF0B40004F0B40008E
S2144015F070B50C46184B98420AD0184B984210D0FB
S214401600174B984216D0174B98421CD0002070BDFE
S2144016101E46154D21463046A8470028FAD10120DF
S21440162070BD1E46104D21463046A8470028FAD1C8
S214401630012070BD1E460D4D21463046A847002865
S214401640FAD1012070BD1E46084D21463046A847B7
S2144016500028FAD1012070BD00060E4000080E405A
S2144016600040024000800240EF0B40003B0B400031
S2144016702DE9F04184B0DFF88C80CDF80480164C1C
S21440168023680293A36803930820144FB847144D69
S21440169001A92846134EB047134B1D60134A144BFE
S2144016A01A60144A144B1A60CDF8048023680293DB
S2144016B0A36803930820B84701A92846B0470F4DB2
S2144016C02B68002198680E4CA0472B68002158686C
S2144016D0A04704B0BDE8F08124000020711240000D
S2144016E000060E40B90B4000740E0020F115400075
S2144016F0700E0020691540006C0E0020340000205B
S214401700691D4000000E270730B59BB000211748E2
S214401710174B98471320174B9847174A1368013BB7
S2144017201360D3B1144B1B68144A1268144901A8BD
S214401730144CA0476FF07F40134CA0476423F02220
S21440174000210846114DA8470020A04701AA0521C0
S21440175008460F4B98471BB030BD0E480E4B984777
S214401760064B1A68044B1A60DCE700BF00000140D5
S214401770C30A4000CB0E4000200000201C00002082
S21440178088784000091F4000310440007908400036
S21440179041094000008003404F0A400070B588B0C1
S2144017A05A485B4B984710F0200F60D005215748A9
S2144017B0584B984784B2224657496846574B9847F5
S2144017C06846574DA8475748A8476FF07F40564D44
S2144017D0A8474FF4A073F02296210020534EB047FE
S2144017E00020A8476A469B210520514B9847514BFD
S2144017F01B68C3EB0333504AA2FB0323B4EB531FCF
S2144018002AD84E4A13684E4909685B1A13604B4CF7
S21440181022684C496846414B98476846404DA84721
S2144018204048A8476FF07F403F4DA8474FF4A0730D
S214401830F022AB2100203D4EB0470020A8476A4624
S214401840B02105203A4B9847236853B94FF480118E
S2144018503D483E4B984710E03D4B1A68374B1A6060
S214401860D5E74FF4801138483A4B984705E027486B
S214401870274B984710F0010F01D108B070BD0021EA
S2144018802248244B984784B2224633496846234B25
S21440189098476846224DA8472248A8476FF07F40A1
S2144018A0214DA8474FF4A073F022C02100201F4EC0
S2144018B0B0470020A8476A46C52105201C4B9847DC
S2144018C040F674639C4210D840F6FF73234A136078
S2144018D0234AC2F848321A4B1B68012BCDD001234D
S2144018E0174A13601F4A1360C7E700231B4A13605A
S2144018F01B4AC2F84832124B1B680A2BBDD00A233B
S2144019000F4A1360174A1360B7E700BF00800340D2
S214401910710A40005F0A400064784000091F40009A
S214401920591D40006C784000310440007908400062
S21440193041094000180000201F85EB511000002090
S2144019401C00002070784000000E0E40BD0D400088
S21440195014000020B90D40007C7840000C000020A8
S214401960000002402000002038B51D20154B984747
S214401970154C4FF48023154A15492046154DA84767
S21440198002234FF440120F212046134DA847002251
S21440199011462046114B984705212046104DA84732
S2144019A000212046A8470F4B502283F81D234FF0B6
S2144019B000521A60202120460B4DA84701212046A0
S2144019C0A84738BD711240000080034000A861005F
S2144019D0000E2707F1094000330A4000250A400060
S2144019E0550A400000E100E06D0A40000F4B4FF4FE
S2144019F000525A601A6F42F400521A675A6F22F425
S214401A0000525A674FF00042A3F520631A61084B14
S214401A100022C3F840224FF48052C3F84C224FF4C1
S214401A208062C3F8442204225A607047000E0E407B
S214401A30000002402DE9F0410A201E4B98471E4CFC
S214401A404FF00232012120461C4B98471C4A012188
S214401A5020461C4B98471C4A012120461B4B984762
S214401A600322012120461A4B98471A4DF0262E6035
S214401A704FF4A0776F600024AC606FF07F48C5F8E5
S214401A800C80154B98472846144B98470820144B13
S214401A9098474046134B98473B4632462146204699
S214401AA0114DA847114B984721462046104B984762
S214401AB0BDE8F0817112400000000E40750A4000FB
S214401AC004040A0A7B0A40000A001600830A400003
S214401AD08B0A40007C0E0020D101400019054000D2
S214401AE0750140003104400079084000FD03400085
S214401AF0F104400000B585B0244B9847244B9847E6
S214401B00244B9847244B9847244B9847244B984758
S214401B101720244B9847244D009503AB02AA29462C
S214401B200120224CA047224C039A42F480420021D6
S214401B302046204B9847029AB5FBF2F200212046F9
S214401B401D4B98471D4B4FF40002C3F8802140219F
S214401B5083F817131A60102200212046184B984726
S214401B6000212046174B9847174E01240094002327
S214401B7022464FF400213046144DA84700940023D7
S214401B8022464FF480113046A847FEE7110C40002D
S214401B90750C40007116400069194000ED19400070
S214401BA0351A400071124000000E2707CB0A40004D
S214401BB000000140930A4000B30A400000E100E004
S214401BC0BB0A4000AB0A4000000E0E40830E4000A9
S214401BD070B50F4E0F4D761BB61018BF002405D0BB
S214401BE0013455F8043B9847A642F9D10A4E0B4DAE
S214401BF0761B05F0A5FFB61018BF002406D00134AA
S214401C0055F8043B9847A642F9D170BD70BD00BF59
S214401C104C7B40004C7B4000547B40004C7B40005B
S214401C2070B4860746D0541E002A41D0CAB2034636
S214401C3002E014F1FF343BD303F8012B9D07F8D1A3
S214401C40032C2ED9CDB245EA05250F2C45EA05458D
S214401C5019D903F110022646103E0F2E42F8105CAA
S214401C6042F80C5C42F8085C42F8045C02F1100250
S214401C70F2D8A4F1100222F00F0204F00F04103242
S214401C80032C13440DD91E462246043A032A46F82E
S214401C90045BFAD8221F22F003020432134404F0F5
S214401CA003042CB1C9B21C4403F8011B9C42FBD16F
S214401CB070BC704714460346C2E700BFF0B5054601
S214401CC089B008460C4600F05BF9AB6B214F049494
S214401CD00126441C04A9022203940590AC6806978A
S214401CE007960191029253B3636E13F0010FB4F955
S214401CF00C309AB201D1900525D5910406D4626E77
S214401D0043F4005322F40052A3816266284601AA97
S214401D10214602F083FE636E00280CBF0A254FF072
S214401D20FF35DA0702D4A3899B0502D5284609B0B9
S214401D30F0BDA06D03F028F8284609B0F0BD28464F
S214401D4002F0E4FCD0E7A06D03F01CF8B4F90C30C8
S214401D509AB2D2E7B4784000024B01461868FFF7C3
S214401D60ADBF00BF3400002000290CBF0222002275
S214401D704FF4806300F000B82DE9F043614C2568CD
S214401D8083B004460F4690461E4615B1AB6B002BFB
S214401D9064D0B8F1020F06D0B8F1010F00F29F8070
S214401DA0002EC0F29C80636ED80734D52146284664
S214401DB002F054FC216B41B104F14003994202D039
S214401DC0284602F045FD00232363B4F90C30002278
S214401DD0A26162601A063AD423F44A6323F00303EE
S214401DE0B8F1020FA3811DD001AB6A4621462846B2
S214401DF002F0CCFFA3891843A081002E32D1009E6A
S214401E00304603F03BF8074600286BD0A38943F0E2
S214401E108003A38128E0A3899905C7D4A06D02F06A
S214401E20B1FFC3E70025616E002604F1430243F08C
S214401E3002030120A660CE07A38122602261606172
S214401E4001D498053ED5284603B0BDE8F083216905
S214401E50284602F0FDFCB4F90C30BDE7284602F0F7
S214401E6055FC96E7002FCBD0AB6B002B33D0009BB6
S214401E70B4F90C2027609E421CBF42F40062A28147
S214401E80B8F1010F04BF42F00102A28192B212F0F3
S214401E900803276166610ED0D1071AD5656E764273
S214401EA0002315F00105A661A36009D00025284649
S214401EB003B0BDE8F083A360656E15F00105F5D16B
S214401EC09305C0D4A06D02F05FFF284603B0BDE87E
S214401ED0F083A660F0E7284602F018FCC7E74FF00C
S214401EE0FF35B0E7DDF80090B14504D0484602F033
S214401EF0C5FF074620B9B4F90C304FF0FF3592E7DE
S214401F004E4683E7340000200EB4F0B59CB021ABBB
S214401F100F4953F8042B019305466FF000440868B8
S214401F2002954FF402774FF6FF7602A90695ADF874
S214401F30147004940794ADF8166000F08FF8029B76
S214401F4000221A701CB0BDE8F04003B0704700BFD6
S214401F5034000020000000000000000000000000E8
S214401F60000000000000000000000000000000002C
S214401F70000000000000000000000000000000001C
S214401F8090F800F06DE9024520F007016FF0000C74
S214401F9010F0070491F820F040F049804FF000041C
S214401FA06FF00700D1E9002391F840F000F10800F7
S214401FB082FA4CF2A4FA8CF283FA4CF3A2FA8CF32F
S214401FC04BBBD1E9022382FA4CF200F10800A4FA96
S214401FD08CF283FA4CF3A2FA8CF3E3B9D1E90423EA
S214401FE082FA4CF200F10800A4FA8CF283FA4CF321
S214401FF0A2FA8CF37BB9D1E9062301F1200182FADB
S2144020004CF200F10800A4FA8CF283FA4CF3A2FAE0
S2144020108CF3002BC6D0002A04BF04301A4612BAEE
S214402020B2FA82F2FDE8024500EBD2007047D1E9F1
S214402030002304F00305C4F100004FEAC50514F080
S214402040040F91F840F00CFA05F562EA05021CBF51
S21440205063EA050362464FF00004A9E72DE9F04F16
S214402060C3B00C460B9192460F930C9002F078FE4C
S21440207003681A931846FFF783FFA3891990190639
S21440208003D52369002B01F0038000230DF1C80916
S2144020901393159314932793269318931B9309939E
S2144020A0CDF89490C846169317939AF80030544645
S2144020B0E3B1252B02D119E0252B03D014F8013FBC
S2144020C0002BF9D1A4EB0A0585B1269B279AC8F8C0
S2144020D000A001332A44072BC8F8045027922693C1
S2144020E07FDC08F10808099B2B4409932378002BD2
S2144020F07FD000231A468DF8773019460D939B46BD
S2144021004FF0FF3063780A9004F1010A0AF1010AA1
S214402110A3F12000582800F2C183DFE810F038020F
S214402120BF03BF034002BF03BF03BF03BF03BF03DA
S214402130BF0345020302BF035D006B02BF03860276
S2144021409D039D039D039D039D039D039D039D034A
S2144021509D03BF03BF03BF03BF03BF03BF03BF034C
S214402160BF03BF03BF0337035703BF035703BF0372
S214402170BF03BF03BF039803BF03BF03AD03BF0343
S214402180BF03BF03BF03BF035902BF03BF031E0302
S214402190BF03BF03BF03BF03BF03BF03BF03BF03EA
S2144021A0BF03BF03C602DB025703570357038B0226
S2144021B0DB02BF03BF039002BF039D02CC01B40203
S2144021C00802BF03E101BF037E00BF03BF030D0249
S2144021D00D980F9340420D904BF0040B9AF8003048
S2144021E094E725AA0B990C9803F06AFF40B9C846B5
S2144021F079E7279B23B10C980B9925AA03F060FF3B
S2144022000B9B9B8913F0400F099B18BF4FF0FF3381
S2144022100993099843B0BDE8F08F1BF0200F119347
S21440222040F0DD810F9A1BF0100F134640F06E858C
S2144022301BF0400F00F06A85148804320025012305
S2144022400F9200278DF877700A994A1C00F0658235
S2144022502BF08002079254EA050240F0648200297F
S21440226040F03C84002B40F0D7841BF001030E93D3
S21440227000F0048642AE302306F8413D0A9B0E9A93
S2144022809342B8BF134608930023129317B1089B96
S21440229001330893079B13F00203109302D0089B68
S2144022A002330893079B13F0840540F00E830D9B82
S2144022B0089AA3EB020BBBF1000F40F30683BBF179
S2144022C0100F279C269A29DD43462146A84610270C
S2144022D00C9C0B9D06E0ABF1100BBBF1100F03F10D
S2144022E0080318DD0132B74826921031072A279195
S2144022F083E88100EFDD25AA2946204603F0E0FE6C
S21440230000287FF47DAFABF1100BBBF1100F27997F
S214402310269A4B46E6DC45460C4698460132A94B83
S21440232026925C44072A279488E8080800F3988495
S2144023309DF8777008F1080877B1269B0133013481
S2144023400DF177010122072B2794269388E8060093
S21440235000F3DB8308F10808109B6BB1269B013322
S21440236002341EA90222072B2794269388E80600EB
S21440237000F3D68308F10808802D00F015830A9BE9
S2144023800E9A9F1A002F36DD102F269B8E4D27DD86
S21440239042462146B0464FF0100B2E460C9C0B9DF5
S2144023A004E0103F102F02F1080215DD0133103112
S2144023B0072B2791269382E84008F2DD25AA294676
S2144023C0204603F07DFE00287FF41AAF103F102F02
S2144023D02799269B4A46E9DC35460C4646469046B3
S2144023E001333C44072B2794269388E8A00000F34B
S2144023F0818308F10808079BDF0500F16882269B69
S2144024000E99C8F8006001330C44072B2794C8F88F
S2144024100410269300F34D8308F10808079B5B07DA
S2144024203AD50D9B089A9D1A002D35DD102D269B1A
S21440243020DD10260C9FDDF82CB004E0103D102D5A
S21440244008F1080816DD01335E4A26931034072B40
S214402450279488E84400F1DD25AA5946384603F01B
S2144024602FFE00287FF4CCAE103D102D279C269BD7
S214402470C846E8DC0133534A26932C44072B27945E
S21440248088E8240008DD25AA0B990C9803F018FE6E
S21440249000287FF4B5AE279C099B0D9A08998A427E
S2144024A0ACBF9B185B180993002C40F00D830023AB
S2144024B02693C846F9E511931BF0200340F0E381CC
S2144024C01BF0100240F02E841BF0400300F02A84DC
S2144024D00F9913460A4604320C880F920025B0E640
S2144024E00F9A1193166800248DF87740151D002E1C
S2144024F000F0A7860A9A531C00F00986214630460B
S21440250002F08EFF002800F0E186831B0E930A94AB
S2144025100F95CDF81CB023EAE373089312949DF808
S2144025207770B3E69AF8003001222B21EEE54BF0A7
S214402530200B9AF80030E9E51193002A40F0958781
S214402540224B18931BF0200F40F011810F9A1BF07E
S214402550100F134640F0E1831BF0400F00F0DD8380
S214402560043314880F9300251BF0010F00F00C81F4
S21440257054EA050300F0088130239DF844208DF886
S21440258078308DF879204BF0020B022359E69AF802
S214402590003000297FF4BAAD01222021B6E54BF089
S2144025A0010B9AF80030B1E50F9C23680D9318464E
S2144025B00028234603F10403FFF60AAE0F939AF869
S2144025C00030A3E5FC7840000C794000DC78400001
S2144025D04BF0100B1BF0200F11933FF423AE0F9DD2
S2144025E0073525F0070303F10802D3E900450F92AB
S2144025F0012326E69AF800302A2B0AF1010400F05F
S2144026002787A3F130000928A24600F2AD860023B2
S2144026101C461AF8013B04EB840400EB4404A3F187
S21440262030000928F5D90A9472E54BF0800B9AF8E9
S21440263000306BE54BF0400B9AF8003066E59AF8B0
S21440264000306C2B03BF9AF801304BF0200B0AF198
S214402650010A4BF0100B59E5002A40F011871BF099
S214402660200F40F0F9841BF0100F40F0AC841BF0B4
S214402670400F00F0A8840F9A136804320F92BDF8FA
S21440268024201A8011E50F99B34B0C68189330221A
S214402690782304318DF8793011934BF0020B0F916B
S2144026A000258DF878200223CBE50F9911930A6810
S2144026B08DF8A02000230A461F468DF87730043256
S2144026C001230893CDF81CB00A9712970F920E93E9
S2144026D028AEDFE51193002A40F0EA861BF0200F73
S2144026E05DD11BF0100F40F008831BF0400F00F048
S2144026F004830F99B1F900400431E51722462B4672
S2144027000F91002A73F1000358DB0A999DF8777001
S2144027104A1C4FF001037FF49BAD54EA050200F0DB
S214402720DF81CDF81CB0012B00F07B82022B40F0FD
S214402730068218984E46230904F00F0143EA0573B3
S2144027402A091C461546435C06F8013D54EA050333
S214402750F1D1A9EB06030E9390E51193002A40F0C1
S214402760A3867E4B18931BF0200F3FF4EFAE0F9DD1
S214402770073525F0070303F108021BF0010F0F92FF
S214402780D3E900457FF4F4AE02235AE51193002ABC
S21440279040F086864BF0100B1BF0200FA1D00F9D0B
S2144027A0073525F00705D5E90023002A05F108017D
S2144027B01D4673F100030F911446A6DA2D27644296
S2144027C065EB45058DF8777001233DE51193002AAA
S2144027D040F062860F9D073525F0070303F1080297
S2144027E00F921A6815925B681493149B159D23F0FC
S2144027F00044284621464FF0FF32594B04F0ACFACD
S214402800002840F04A83284621464FF0FF32544B7A
S21440281004F084FA002840F0408315A80DC81499A7
S21440282004F072FA002840F030859DF877704D4EDF
S2144028304D4B2BF080000790119803220021089200
S2144028400A914728D8BF1E460E9212911EE54BF0BD
S214402850080B9AF8003059E4A3F1300000231C46D8
S2144028601AF8013B04EB840400EB4404A3F1300067
S2144028700928F5D90D944BE44BF0100B11931BF03F
S21440288020033FF41DAE0F9D073525F0070303F1E7
S2144028900802D3E900450F920023D2E41193002AA0
S2144028A040F0E785119A002A3FF4A3AC00230121AB
S2144028B01F4608918DF8A020CDF81CB08DF87730D3
S2144028C00A9312930E9128AEE4E4279C34E5119BBC
S2144028D0652B40F3A78015A80DC8149904F00AFA92
S2144028E0002800F05081269B204AC8F8002001337B
S2144028F001340122072B27942693C8F8042000F3BE
S2144029006A8308F108081F9B139A279C934203DBAF
S214402910079BDD077FF582AD269B19991A9AC8F862
S214402920002001330C44072BC8F804102794269344
S21440293000F39E8308F10808139B5E1E002E7FF767
S2144029406DAD102E269B0A4D40F3F581224610278A
S214402950DDF830B00B9C13E0DC784000C8784000CF
S214402960FFFFEF7FBC784000B8784000F878400022
S2144029700C79400008F10808103E102E40F3DA812A
S21440298001331032072B2792269388E8A000F1DD0A
S21440299025AA2146584603F093FB00287FF430AC26
S2144029A0279A269BC846E7E70D9B089A9F1A002F52
S2144029B07FF7E5AC102F269BB64D27DD42462146D5
S2144029C0B0464FF0100B2E460C9C0B9D04E0103F7B
S2144029D0102F02F1080215DD01331031072B279125
S2144029E0269382E84008F2DD25AA2946204603F0D1
S2144029F067FB00287FF404AC103F102F2799269BD6
S214402A004A46E9DC35460C464646904601333C4449
S214402A10072B2794269388E8A00000F3328208F11B
S214402A200808ACE4139B269F012B40F3FE81013738
S214402A3001340123072F27942697C8F80060C8F86A
S214402A40043000F3038208F10808199A1A9BC8F864
S214402A50003001371444072F27942697C8F80420DF
S214402A6000F3008208F1080815A80DC8149904F070
S214402A7041F9139B002840F00181013B01370136A4
S214402A801C44072F26972794C8F80060C8F80430DF
S214402A9000F3278108F108081B9AC8F8042001377C
S214402AA0144421AB072F27942697C8F800307FF7A9
S214402AB0B3AC25AA0B990C9803F002FB00287FF4D0
S214402AC09FAB279CC846A9E425AA0B990C9803F00F
S214402AD0F7FA00283FF4EBACFFF792BBDDF81CB0EA
S214402AE0012B00F03481022B25D1CDF81CB00024F8
S214402AF000251EE625AA0B990C9803F0E1FA00285B
S214402B007FF47EAB279CC84675E425AA0B990C98A3
S214402B1003F0D6FA00287FF473AB279CC8461BE424
S214402B2025AA0B990C9803F0CBFA00287FF468ABE3
S214402B30279CC84620E4CDF81CB000240025494612
S214402B4000E03146E20842EA4572E80804F007032E
S214402B5005461446303354EA050201F8013C01F1BB
S214402B60FF36EED1079AD2077FF5F3AD302B3FF410
S214402B70F0AD0239302306F8013CA9EB01030E9371
S214402B800E46FFF77BBB1F99002940F32E82129B0F
S214402B90139A9342A8BF1346002B1F460DDD269B73
S214402BA0C8F8006001333C44072B2794C8F80470EB
S214402BB0269300F31F8308F10808129B002FA8BF36
S214402BC0DB1B002B1F4640F3D680102F269B314D33
S214402BD040F3ED8142462146B0464FF0100B2E465C
S214402BE00C9C0B9D04E00832103F102F40F3DB8115
S214402BF001331031072B2791269382E84008F2DDF7
S214402C0025AA2946204603F05BFA00287FF4F8AA56
S214402C102799269B4A46E7E70A9B0E934E46FFF7C0
S214402C202DBB002D08BF0A2CC0F08F804E46204694
S214402C3029460A22002304F0CDF8303206F8012D4A
S214402C402046294600230A2204F0C4F804460D46CE
S214402C5054EA0503EBD1A9EB06030E93FFF70EBB30
S214402C6025AA0B990C9803F02BFA00287FF4C8AAE3
S214402C709DF87770279CC846FFF75EBB5E1E002E09
S214402C807FF70AAF102E034D22DD22464FF0100B81
S214402C900C9C06E00C794000103E102E08F1080807
S214402CA015DD01371032072F2792269788E820082F
S214402CB0F2DD25AA0B99204603F002FA00287FF49D
S214402CC09FAA103E102E279A269FC846E9DC144637
S214402CD001373444072F2794269788E860007FF70B
S214402CE0D9AE25AA0B990C9803F0EAF900287FF490
S214402CF087AA279C269FC846CEE60F9A1468134696
S214402D000433E5170F9322462B46FAE404321C6838
S214402D100F9201230025FFF794BA1C6804330F93E3
S214402D20002521E40F990A4604320C680F920025CC
S214402D30FFF787BA144601333444072B279426936B
S214402D4088E860007FF768ABB3E6DDF81CB0CDF8E6
S214402D501CB042AE3034012306F8414D0E93FFF7C7
S214402D608DBA25AA0B990C9803F0AAF900287FF48F
S214402D7047AA279CC8461F9A139B9A4244DB079B48
S214402D80D90741D4139B12989A1A1D1A9542A8BF88
S214402D901546002D0EDD2699C8F80450013106442C
S214402DA02C440729C8F800602794269100F33B82FC
S214402DB008F10808002DACBF561B1646002E7FF7BC
S214402DC02DAB102E269BB04DB5DD22461027DDF8E4
S214402DD030B00B9C04E008F10808103E102EA9DD28
S214402DE001331032072B2792269388E8A000F2DDA5
S214402DF025AA2146584603F063F900287FF400AA26
S214402E00279A269BC846E8E7269B19981A99C8F839
S214402E10001001330444072B2794C8F80400269377
S214402E2000F3F58108F10808ACE7079BDA073FF5A1
S214402E30FEAD013701340123072F27942697C8F8A3
S214402E400060C8F804307FF725AE4AE725AA0B99FC
S214402E500C9803F035F900287FF4D2A9279C269FCA
S214402E60C846F2E525AA0B990C9803F029F90028E4
S214402E707FF4C6A9279C269FC846F5E54E46FFF731
S214402E80FDB925AA0B990C9803F01AF900287FF48F
S214402E90B7A9279CC846FFF772BA159C224620461B
S214402EA0149C2346214603F057FF002840F08682B4
S214402EB00A9B0133119B23F020030E9300F0E2811E
S214402EC0472B00F01E814BF480730793149B1F1E04
S214402ED0159B0893BBBF3B4603F1004700232D23B9
S214402EE01093119B662B00F0BB81462B00F0DF80D1
S214402EF00E9B089A452B0CBF0A9B0A9D23A820A927
S214402F0008BF5D1C049003911FA802213B46029017
S214402F10019500910C9800F0D7FB119B672B064655
S214402F2040F0E0811BF0010F00F046827419169ABB
S214402F300898179B394603F0DDFE002840F065816F
S214402F40239BA34206D230215A1C23921970239BFE
S214402F509C42F9D89B1B13930E9B472B00F0E980AD
S214402F60119B652B40F3CD81119B662B1F9B1293C3
S214402F7000F09E81139B129A1946914200F38A8173
S214402F801BF0010F40F0138222EAE2730893672396
S214402F900E921193109B002B40F0C4800A939DF82C
S214402FA07770FFF773B935460C4646469046013370
S214402FB03C44072B2794269388E8A0003FF7D1AEE1
S214402FC008F10808D7E60F9A136804320F92099A58
S214402FD01A60FFF76AB825AA0B990C9803F070F8A8
S214402FE000287FF40DA9C8468DE4269B274AC8F8DA
S214402FF00020013301340122072B27942693C8F87A
S214403000042072DC08F1080829B9139B1BB9079BFA
S214403010D8077FF503AA269B19981A9AC8F8002065
S214403020013302462244072B2792C8F80400269311
S21440303000F38D8108F108080029C0F265811399D4
S214403040C8F8006001338C18072B27942693C8F8DD
S21440305004107FF7E1A92CE50F9A09991368CD175C
S2144030600846043229460F92C3E90001FFF71DB80F
S21440307025AA0B990C9803F023F800287FF4C0A8E3
S214403080279CC84658E400BF0C794000F8784000BA
S21440309040210C9801F0FAFE0B9A1060106100284F
S2144030A000F0F2810B9A40235361FEF7EEBF23A84F
S2144030B020A90A9C049003911FA803210290089A15
S2144030C001943B4600910C9800F0FEFA25460646D1
S2144030D0119B462B06EB05047FF429AF3378302B43
S2144030E000F078811F9D2C4421E725AA0B990C9867
S2144030F002F0E6FF00287FF483A81F99279CC84665
S21440310082E70A9B002B08BF01230A93DBE6304682
S2144031100A94FEF735FF0F950E90CDF81CB0034687
S214403120FFF7F9B92D2700238DF877700A93FFF73C
S214403130AEB81F9B12931A46033304DB0A9B19460C
S2144031409142BFF617AF119B023B11939DF8443056
S2144031508DF88430129B013B002B1F93BDBF129B02
S214403160C3F101032D222B22092B8DF8852040F335
S21440317016810DF193042046AB4D00E0104685FBCA
S2144031800312D917C1EBA20101EB8102A3EB420265
S2144031903032092900F8012C0B4600F1FF32EDDCF5
S2144031A030330238D9B2844202F8011C40F26581BD
S2144031B00DF18600134601E013F8011B00F8011BD1
S2144031C0A342F9D101339B1A0DF18602134421AA7A
S2144031D09B1A139A1B93012A13440E9340F31981AA
S2144031E00E9B199A13440E9323EAE3730893002325
S2144031F01293CFE625AA0B990C9802F061FF00289F
S2144032007EF4FEAF279CC846D7E42346A2E625AA0E
S2144032100B990C9802F054FF00287EF4F1AF1F9AE9
S214403220279CC846AEE525AA0B990C9802F048FFA5
S21440323000287EF4E5AF1F9A139B279C9A1AC8462F
S214403240B8E50A9B1296062B28BF06230A963746F1
S21440325008930F95CDF81CB00E93744EFFF716B832
S21440326023A820A90A9D049003911FA80321029039
S214403270089A01953B4600910C9800F025FA0646C0
S21440328044192BE706230A931DE62D278DF8777001
S214403290FFF7CDBA199A139B1344129A0E93002A3D
S2144032A040F3B08023EAE37308936723119371E6F3
S2144032B0002B40F3C3800A9A002A40F099801BF006
S2144032C0010F40F0958008930E9363E60A9B08939F
S2144032D00E930A900F95CDF81CB012909DF877701B
S2144032E0FEF7D4BF119B472B7FF420AE1BF0010F97
S2144032F07FF4EEAE239B9B1B13930E9B472B3FF412
S21440330018AF1F9B129321E74F421031484D2FDADA
S2144033101024DDF830B004E008F10808103F102F04
S21440332026DD01331032072B27922693C8F800502B
S214403330C8F80440F0DD25AA0B99584602F0C0FEB6
S21440334000287EF45DAF279A269BC846E6E725AA66
S2144033500B990C9802F0B4FE00287EF451AF1F99EA
S214403360279A269BC84667E600200A90FEF7D0BEFE
S21440337001333A44072B88E8A0002792269308F1A9
S21440338008087FF75CAE25AA0B990C9802F098FEC9
S21440339000287EF435AF279A269BC8464FE6303342
S2144033A030228DF887308DF8862022AB0FE7129BAF
S2144033B0199A13440E9375E7239BCBE5149B1D4E39
S2144033C0002BB6BF2D279DF877708DF877701A4B77
S2144033D0FFF72FBA169A0898179B394603F08AFCCF
S2144033E000287FF47FAEC5F101051F952C449EE56D
S2144033F0129B199A13440A9A1A4422EAE2730E92CE
S2144034000893C7E5129B0E9AC3F101031A4413466C
S214403410D0E71BF0010312937FF4E2AE0E9B23EA43
S214403420E3730893B6E500BF67666666F0784000CB
S2144034300C794000C4784000C07840000A9B13B91D
S2144034401BF0010F02D0199B0133D4E701233AE762
S2144034500F9D9AF80130286840EAE0700A902846A6
S2144034600430A2460F90FEF751BE8DF87710FFF756
S21440347067B88DF87710FFF715BA0DF18603A6E604
S2144034808DF87710FFF7EBB80C9A0C2313604FF0CB
S214403490FF330993FEF7BDBE8DF87710FFF79AB954
S2144034A08DF87710FFF776B98DF87710FFF759B992
S2144034B08DF87710FFF712B938B5304B1B680546C4
S2144034C00C4613B19A6B002A38D0B4F90C2093B24C
S2144034D018070CD52069A8B113F001021ED0636905
S2144034E000225B42A361A260F0B1002038BDD9063D
S2144034F03CD5580726D4206942F00803A3819BB2E6
S2144035000028E9D103F42072B2F5007FE4D02846C3
S214403510214601F069FCA3892069DDE7990758BF79
S2144035206269A2600028E0D1B4F90C301A06DDD5F5
S21440353043F04003A3814FF0FF3038BD184601F0FA
S214403540E5F8C2E7216B51B104F14003994204D03B
S214403550284601F07DF9B4F90C20002323630023AC
S2144035602069636022F024022060C5E742F04002F2
S21440357009232B604FF0FF30A28138BD3400002075
S214403580024B13B1024800F005B870470000000037
S2144035907D474000002301461A46184602F032BED8
S2144035A002690B69934200F38D802DE9F04F03F1D9
S2144035B0FF3801F1140700F1140B57F828205BF888
S2144035C028304FEA880483B00132B3FBF2F90BEBA4
S2144035D00403009407EB040A0193B9F1000F39D0B5
S2144035E000252E46BC46DE465CF8044BDEF800302E
S2144035F0A2B209FB0255220C2C0C09FB0242ADB2CA
S214403600751B96B2C6EB134615FA83F306EB2346B4
S2144036109BB243EA0643E2454FEA12454EF8043B66
S2144036204FEA2646E0D2009B5BF8033093B9019CF4
S214403630231F9B450CD254F8043C4BB9A4F1080315
S21440364002E01A68043B1AB99B4508F1FF38F8D3E4
S214403650C0F81080044602F03BFA00282EDB09F141
S21440366001095D46002357F8041B28688AB29A1A57
S2144036700B0C12FA80F2C3EB104303EB224392B2D8
S21440368042EA0342BA4545F8042B4FEA2343EAD2BE
S2144036905BF828200BEB880382B91A1F93450BD2A0
S2144036A053F8042C42B9083B02E01A68043B1AB9A6
S2144036B09B4508F1FF38F8D3C4F81080484603B05D
S2144036C0BDE8F08F002070472DE9F04F016C9BB0AD
S2144036D00446279E92469B4641B1426C4A6001236F
S2144036E093408B6002F01CF800232364BBF1000F6C
S2144036F05D4635DB002333609D4BAB4315D05046CB
S21440370059460022002303F0F5FA804600282DD0C3
S214403710269A01231360289B002B00F0BD80954815
S214403720186001381BB0BDE8F08F269A42F20F733E
S2144037301360BAF1000F0DD1C5F3130555B9289B98
S2144037408D48002BEED000F10803289A13601BB07A
S214403750BDE8F08F289B8948002BE3D0C31CF4E7D4
S21440376001232BF000453360AB46C5E718AA19ABDA
S2144037700192009352465B46204602F049FA2B0DD2
S214403780814671D0CBF3130242F07F51189FCDF89B
S21440379050805046A3F2FF3641F440110022784B49
S2144037A002F08CFE6CA3D3E9002303F03BF86CA335
S2144037B0D3E9002302F084FECDE90201304602F050
S2144037C0CBFF69A3D3E9002303F02CF802460B464F
S2144037D0DDE9020102F074FECDE9040103F0D2FAFD
S2144037E0002202900023DDE9040103F08DFA002850
S2144037F040F07381029D162D00F25D81614B03EB14
S214403800C503D3E9000152465B4603F09BFA002805
S21440381000F0C5816B1E029300230E93BF1B7B1ED8
S214403820069300F1548100230893029B002BC0F2BC
S2144038304581069A0D9311461944002306910C9330
S214403840249B092B2AD8052B40F35B86043B249304
S2144038500025249B023B032B00F24286DFE813F050
S214403860D403C902DF036104189F199E3E4406F242
S2144038703243202B40F38E81C3F1400306F21240C0
S2144038809D402AFA00F0284302F056FF0123013EED
S214403890A1F1F871149381E73B4843E70021616446
S2144038A02046259101F016FF4FF0FF330A93259AE4
S2144038B00F9301230490206424920B93199B002BB2
S2144038C0C0F2D980029A0E2A00F3D5802D4B03EB26
S2144038D0C203D3E90023CDE90823259B002BC0F281
S2144038E0BA83DDE9085650462A463346594603F021
S2144038F0C3F803F047FA804602F02EFF2A463346C6
S21440390002F090FF0B4602465946504602F0D6FD5E
S214403910049D08F130032B700A9B012B06460F4688
S21440392005F1010568D00022184B02F07BFF00220B
S214403930002306460F4603F0DDF9002840F0888055
S214403940CDF82C904FF0000ADFF840B00C94DDE93B
S214403950088928E0AFF3008061436F63A787D23FB2
S214403960B3C8608B288AC63FFB799F501344D33F29
S2144039700000F07FF97840001C794000287940002C
S2144039800000F83F68794000F87840000000244086
S21440399002F048FF0022002306460F4603F0AAF92D
S2144039A0002840F0C18342464B463046394603F035
S2144039B063F803F0E7F9044602F0CEFE42464B4673
S2144039C002F030FF02460B463046394602F076FD9E
S2144039D004F1300E049E05F801EBA5EB060E0A9E98
S2144039E0B645CDE9060152465B46D1D1A046DDF844
S2144039F02C900C9C06460F4632463B46304639468F
S214403A0002F05EFD06460F4602460B46DDE908011B
S214403A1003F07AF948B932463B46DDE9080103F03F
S214403A2069F9A8B118F0010F12D015F8018C049A64
S214403A306B1E04E09A4200F0018413F8018DB8F141
S214403A40390F03F10105F5D008F1010883F800802D
S214403A504946204601F064FE0022029B2A70269AC0
S214403A6001331360289B002B00F09E8304981D6052
S214403A701BB0BDE8F08F0B9A002A3ED0249A012A4C
S214403A8040F311830A9B0C9A5F1EBA42C0F28F83A2
S214403A90D71B0A9B002BC0F28B84089D0A9B089A72
S214403AA01A440892069A01211A442046069201F0CA
S214403AB0D1FE064624E001230E93AFE6089A029B09
S214403AC0D21A5B420C93002308920D93B8E6C7F1D6
S214403AD00103089300230693A7E6029D284602F0BA
S214403AE03BFE02460B46DDE9040103F003F90028DD
S214403AF07FF480AE6B1E02937CE60C9F089D0B9E67
S214403B00002D0CDD069900290B4608DDA942089ACF
S214403B10A8BF2B46D21AED1ACB1A089206930C9BD6
S214403B20D3B10B9B002B00F0B782002F10DD31463F
S214403B303A46204601F02AFF4A46014606462046B7
S214403B4001F092FE49468046204601F0E9FDC14616
S214403B500C9BDA1B40F0A1820121204601F07AFE40
S214403B600D9B002B80461CDD01461A46204601F080
S214403B700DFF249B012B804640F3548200230C9378
S214403B80D8F8103008EB8303186901F013FEC0F133
S214403B90200010E0C3F120050AFA05F074E60E9006
S214403BA03CE6249B012B40F3878200230C930D9B1D
S214403BB00120002BE4D1069A104410F01F0000F0BC
S214403BC0A180C0F12003042B40F39E84089BC0F1E3
S214403BD01C00034408931346034405440693089B7D
S214403BE0002B05DD49461A46204601F01FFF814658
S214403BF0069B002B05DD41461A46204601F016FF7F
S214403C0080460E9B002B40F086800A9B002B40F39C
S214403C1066820B9B002B00F09880002D05DD314618
S214403C202A46204601F002FF06460C9B002B40F039
S214403C30378306960A9B049ADDF818B0013BD318E2
S214403C400B930AF001030C931746C246514648466A
S214403C50FFF7A6FC31460546484601F039FF5A466E
S214403C600A905146204601F04FFFC268804605F153
S214403C703003002A40F02B8201464846089301F064
S214403C8027FF41460690204601F04AFD069A089BCB
S214403C9032B9249921B90C9A002A00F0EF83249A6D
S214403CA00A990029C0F29F8205D1249919B90C9926
S214403CB0002900F09882002A00F306830B9A3B7096
S214403CC007F101089742454600F00C834946002319
S214403CD00A22204601F02EFD5E45814631464FF0D1
S214403CE000034FF00A02204600F0EB8101F022FD6F
S214403CF05946064600230A22204601F01BFD474649
S214403D008346A3E71C20089B03440893069B034472
S214403D100544069363E74146484601F0D9FE00282D
S214403D20BFF673AF029F494600230A222046013F52
S214403D30029701F0FFFC0B9B8146002B40F0B683B8
S214403D400F9B002B40F3BF830A93DDF810B00A9F09
S214403D505D4602E001F0EEFC814641464846FFF7EC
S214403D601FFC00F1300A05F801ABA5EB0B03BB4284
S214403D704FF00A024FF0000349462046EADB049B18
S214403D800A9A012AACBF9B1801331D464FF0000B20
S214403D9049460122204601F049FE4146814601F04F
S214403DA097FE002840F33D8215F8012C04996B1EBF
S214403DB004E08B4200F0AE8113F8012D392A03F15E
S214403DC00105F6D001321A704146204601F0A8FCA3
S214403DD0002E3FF43DAEBBF1000F05D0B34503D0F7
S214403DE05946204601F09CFC3146204601F098FC9E
S214403DF02EE600230B93029B259A13440F93013320
S214403E00012B1F461E460A93B8BF01270021172FD5
S214403E1061640AD9012204235B0003F1140087423F
S214403E20114602F10102F7D26164204601F052FCCD
S214403E300E2E049020643FF641AD002D3FF43EAD7B
S214403E4002990029CDE910AB40F30282B84B01F04D
S214403E500F020D1103EBC203E906D3E9006740F1F8
S214403E60AE81B44B50465946D3E9082302F004FECF
S214403E70CDE9120105F00F054FF0030A8DB1DFF8CA
S214403E80B482EA0709D530463946D8E9002302F01D
S214403E90C9FC0AF1010A06460F466D1008F10808EB
S214403EA0EFD13B463246DDE9120102F0E5FD07461A
S214403EB088460E9B43B100229F4B3846414602F04F
S214403EC023FF002840F08682504602F045FC3A46E2
S214403ED0434602F0A7FC994B002202F0F1FA0A9BF7
S214403EE00546A1F15076002B00F03E81029B1593CB
S214403EF00A9B12930B9B002B00F0FA81129A8C4B74
S214403F008F4903EBC20353E90223002002F0B4FDBD
S214403F102A46334602F0D2FA82468B463846414617
S214403F2002F030FF054602F017FC02460B463846C4
S214403F30414602F0C3FA30355FFA85F8049D0646DE
S214403F400F4685F8008002460B46504659460135D6
S214403F5002F0F8FE002854D132463B46002076490F
S214403F6002F0ACFA02460B465046594602F0EAFECC
S214403F70002840F07082129A012A00F01181129BAC
S214403F80049ACDF84890134499460DE000206A49BB
S214403F9002F094FA52465B4602F0B6FE002840F025
S214403FA058824D4500F0FA80504659460022654BEF
S214403FB002F038FC0022634B82468B463046394638
S214403FC002F030FC0F46064602F0DCFE804602F069
S214403FD0C3FB02460B463046394602F06FFA08F1FC
S214403FE030085FFA88F852465B4605F8018B06466D
S214403FF00F4602F089FE32463B460028C6D0DDF822
S2144040004890159B029323E500230B93259B002B9A
S21440401040F3DC801F461E460F930A93F6E60123C4
S2144040200B93F3E7BAF1000F7FF4A8ADCBF313037D
S214404030002B7FF4BAAD2BF000473F0D3F05002F15
S21440404000F00D82089B01330893069B01330693CC
S21440405001230C93ABE50A9B002B3FF742AC40F0A4
S21440406021820022384BDDE9080102F0DBFB524694
S2144040705B4602F05DFEDDF828804646002841D0CB
S214404080259B049DDB4302934146204601F048FBB6
S214404090002E3FF4DDACA7E60C9A4946204601F0D8
S2144040A075FC814658E5149A002A00F0878103F291
S2144040B033430C9F089DF2E4BAF1000F7FF475ADD0
S2144040C0B4E701F037FB474606468346BEE5014661
S2144040D02046069301F024FB0122069BE0E5249B44
S2144040E0022B7FF796AD0A9B002BC9D1414605228D
S2144040F0204601F01FFB01468046484601F0E8FC9A
S2144041000028BDDD029A04993123013202920B70D9
S2144041104D1CB9E7029A01320292049A3123137079
S21440412052E601230B9366E6DDF82C900C9C8FE458
S21440413068794000407940000000F03F00001C4095
S2144041400000E03F0000244000001440504602F0CB
S21440415003FB3A46434602F065FB0022C14B02F0A1
S214404160AFF90546A1F1507641460022BE4B38468F
S21440417002F0A4F92A46334682468B4602F0E2FD18
S2144041808046002840F010812A4606F100435046FB
S214404190594602F0B9FD18B1464671E7DDF8489039
S2144041A0DDE910ABFFF78ABB0498FFF7BBBA0C9B60
S2144041B00D9A0C97FB1A1A440D92002769E4DDE924
S2144041C010234FF0020ACDE9122357E600210123BF
S2144041D061642046259301F07DFA259B0490206477
S2144041E00A930F9329E6002AD046CDF818B09A468F
S2144041F011DD49460122204601F018FC4146814621
S21440420001F066FC002840F34681BAF1390F00F011
S214404210068105F1310AB34687F800A07D1C069E4C
S214404220D2E504D11AF0010F01D0BDE5154615F8C8
S214404230013C302B05F1FF32F8D0C5E50499302219
S2144042400A70029A15F8018C01320292FFF7FCBB05
S21440425000F0BB80029B5D42844B05F00F0203EBEF
S214404260C203D3E90023DDE9100102F0DBFA2D1189
S2144042700746884600F02C817D4E4FF0020AEB0739
S21440428009D538464146D6E9002302F0CBFA0AF172
S214404290010A074688466D1006F10806EFD108E683
S2144042A07168204601F016FA336902339A000546D3
S2144042B006F10C010C3001F003F929460122204694
S2144042C001F0B4FB0690B5E4392BCDF818B0D046D3
S2144042D000F0A58003F1010AB34687F800A07D1CD4
S2144042E0069E71E55A46D046B3469A4616464FE570
S2144042F0129B5E4901EBC3012A46334651E902014F
S21440430002F090FACDE916013846414602F03AFDF1
S214404310054602F021FA0B4602464146384602F070
S214404320CDF8129B0F4604993035012B0D7006468A
S21440433001F1010526D0129B049ADFF83CB1CDF876
S214404340489013444FF0000A994652465B46304622
S214404350394602F067FA0F46064602F013FD8046DD
S21440436002F0FAF908F1300802460B463046394664
S21440437002F0A4F805F8018B4D4506460F46E4D1F9
S214404380DDF848903B4B0022DDE9160102F098F834
S21440439032463B4602F0B8FC002846D0159B0293B6
S2144043A015F8018CFFF743BB4FF000084646A9E6D8
S2144043B0089B0A9A9D1A0023FFF771BB189B0C9F17
S2144043C0089DC3F13603FFF76ABBDDE910784FF06E
S2144043D0020A6EE50A9B002B3FF4B8AE0F9B002BFB
S2144043E07FF7DEAE0022244B3846414602F01AFAEA
S2144043F0074688460AF1010002F0AEF93A464346BF
S21440440002F010FA0022174B02F05AF8029A0F9B5D
S2144044101293013A0546A1F1507615926AE5392283
S214404420B3463A70069E7D1CC0E4DDE916230020A4
S214404430104902F043F832463B4602F083FC08B986
S214404440AEE6154615F8013C302B05F1FF32F8D0A4
S214404450D7E5DDF84890159B0293FFF7E8BA0C972E
S214404460FFF7A5BB00001C400000144068794000E0
S214404470407940000000E03F00002440392BCDF852
S21440448018B0D046DDF828B09A46C8D0BBF1000F29
S2144044903FF7BFAEBFE67FF4BEAE1AF0010F3FF463
S2144044A0BAAEB2E64FF000084646E9E5314600238C
S2144044B00A22204601F03EF90F9B002B06460ADDF5
S2144044C00A93FFF7AABB249B022B23DC0F9B3BE4FB
S2144044D04FF0020AEDE4249B022B1BDC0F9BEFE718
S2144044E0002565642946204601F0F4F84FF0FF3376
S2144044F00A930F9301230490259520640B93FFF7AE
S214404500DDB90125FFF7A5B93FF469ABC0F13C0022
S214404510FFF7F9BB0F9B0A93E5E500BFB1F90C30F6
S2144045209AB22DE9F0410D46110780463AD46A68A2
S21440453043F40063002AAB816FDDAC6A002C49D09F
S21440454000229BB2D8F80060C8F8002013F48052CE
S21440455067D02A6D5F0705D569682B6B521A0BB179
S214404560EB6BD21A0023E9694046A047441C3CD076
S214404570B5F90C302A692A6023F400630022AB8127
S214404580DB046A6047D4296BC8F8006011B305F1B4
S2144045904003994202D0404600F05AF90020286372
S2144045A0BDE8F0812E69AEB12C682E6091070CBF35
S2144045B06B690023A41BAB600AE0234632466F6A51
S2144045C0E9694046B8470028A4EB0004064404DDE9
S2144045D0002CF2DC0020BDE8F081AB8943F04003BC
S2144045E0AB814FF0FF30BDE8F081D8F800401D2C7D
S2144045F0F3D8194BE340DB4313F00103EDD1B5F993
S2144046000C206B6022F400632969AB81DA042960D0
S214404610B9D5002CB7D12865B5E7EA6B002A8CDC03
S214404620D8E70123E9694046A047431C024602D02A
S214404630AB89AC6A8EE7D8F80030002BF8D01D2B3B
S21440464001D0162B02D1C8F80060C3E7AB8943F00F
S2144046504003AB81BDE8F0810100402038B50D46EF
S214404660044608B1836BBBB1B5F90C0088B16B6EDC
S214404670DB0701D4810517D520462946FFF74EFFB4
S2144046806B6EDA07044602D4AB899B0507D52046F5
S21440469038BD0446204638BD00F038F8E4E7A86D3B
S2144046A000F072FB204638BDA86D00F06BFBE3E7D8
S2144046B0014900F02BBB00BF4D63400010B50023FE
S2144046C004468181C2810360436083604366036120
S2144046D043618361194608225C30FDF7A1FA07481A
S2144046E00749084A084B2062E4616162A262E362BD
S2144046F004F15800BDE8104000F040BB396040006F
S2144047005D60400099604000B960400010B50446C6
S214404710124800F037FBA26BD2B904F53B73104841
S214404720C4F8E8320321C4F8E022E063C4F8E41297
S21440473060680421FFF7C2FF01220921A068FFF745
S214404740BDFF02221221E068FFF7B8FF0123A363F2
S2144047500248BDE8104000F017BB00BF980E00208E
S214404760B1464000014800F00DBB00BFAC0E002033
S214404770014800F009BB00BFAC0E002038B50A4C1B
S2144047800A4D641BA4100AD004F18043013B05EB9C
S2144047908305013C55F804399847002CF9D1BDE80B
S2144047A0384003F0D7B900BF647B4000607B4000D0
S2144047B0F8B5244F0C46064600F080FFBB685D689F
S2144047C0C4F57E610F3125F00305294421F47F614D
S2144047D021F00F01A1F58054B4F5805F07DB00217E
S2144047E0304601F017FCBB682B44984204D0304654
S2144047F000F06AFF0020F8BD6142304601F00AFC36
S21440480001300DD0104BBA6819682D1B45F00105D4
S2144048103046091B5560196000F056FF0120F8BD70
S2144048200021304601F0F6FBBA68831A0F2BDEDD16
S214404830064C0549246843F00103001B536008609A
S214404840D5E700BFD0050020380E0020D80900204C
S214404850002944D02DE9F0410D46804600F02EFF59
S21440486055F8047C694927F00103A5F10804E218CD
S2144048708E685068B24220F003005ED0FE0750605B
S2144048800BD455F8087CE41B01F1080EA568754565
S2144048903B446DD0E768EF60BD6015186D68ED0766
S2144048A03ED543F001026260E350B3F5007F17D275
S2144048B0DB08581C9A104D6851F83070A7600123E9
S2144048C0934001EBC0022B43083AE2604B6041F84C
S2144048D03040FC604046BDE8F04100F0F5BE704711
S2144048E05A0A042A52D89A0902F13907FF0002F1FF
S2144048F03805C819CA59083890424FD0516821F037
S21440490003018B4232D292689042F7D1C368A060CE
S214404910E3609C60C4604046BDE8F04100F0D4BE11
S21440492095683B4FBD42034440D0D068E86043F0B2
S214404930010285606260E350B7E7FF07034407D48F
S21440494055F8082CA41A1344A068E268C260906028
S214404950304A126843F00100934260608C60B9D3DD
S2144049602D4B40461968FFF723FFB3E71046CDE7C7
S21440497011184968C90744D49168D268CA6003448C
S21440498043F0010091606060E350A3E7142A16D814
S21440499002F15C07FF0002F15B05AAE7AA100123BB
S2144049A04D6893402B434B600346B0E743F001020B
S2144049B04C610C61E560A5606260E3508AE7542A6A
S2144049C006D81A0B02F16F07FF0002F16E0590E75A
S2144049D0B2F5AA7F06D8DA0B02F17807FF0002F19B
S2144049E0770586E740F25450824206D89A0C02F188
S2144049F07D07FF0002F17C057BE74FF47E777E253E
S214404A0077E743F001016160136063E7D00500205B
S214404A10D8050020DC090020680E00209368002B93
S214404A2073D02DE9F04F8B8983B00C461907009060
S214404A30164626D5226922B313F0020035682CD0DC
S214404A404FF00009B04FC846B246B84543464A46BE
S214404A5028BF3B460098B8F1000F50D0E169666A1F
S214404A60B047002858DDDAF808301B1A8144A8EB16
S214404A700008CAF80830002BE7D1002003B0BDE894
S214404A80F08F21460098FEF717FD002840F033814E
S214404A90A389356813F00200D2D113F0010945D13D
S214404AA04F46019637B39A05D4F8088040F1838084
S214404AB04745C346C0F0AB8013F4906F40F0AC80DF
S214404AC02068BA465A46494600F094FDA2682368D4
S214404AD0A2EB08025B44A2602360019A9368A3EBB2
S214404AE00A03D144A7EB0A079360002BC5D0A389DD
S214404AF0002FD8D1D5F800906F680835D2E7D5F8A2
S214404B000090D5F8048008359FE70020704721467E
S214404B100098FFF7A3FD70B3B4F90C3043F04003A0
S214404B204FF0FF30A38103B0BDE8F08F8146334697
S214404B304E46A8469A464D464EB380B320682369F3
S214404B406269B145CB4628BFB34698425F4604D912
S214404B50A36813449B4500F3A68093454BDB13465E
S214404B60676AE16900982A46B847071ED4DDB9EB64
S214404B700709CCD00120DAF80830DB1B3D44F61B91
S214404B80CAF80830002B3FF478AF002ED5D108F194
S214404B90080313E9600098460833002EF9D03246E1
S214404BA00A21284600F03CFC002800F0A180013095
S214404BB0A0EB0509C2E720682369984202D86369DA
S214404BC09F425DD2B84528BFB8464246494600F0A7
S214404BD011FDA3682268A3EB08034244A360226049
S214404BE00BB1C24679E721460098FFF737FD00280B
S214404BF092D1C24671E75A46294600F0FBFCA268AD
S214404C002368A2EB0B025B44A2602360AFE72068F8
S214404C10B846BA46BB4655E762692068216902EB4A
S214404C204208A0EB010A08EBD8780AF101004FEAE7
S214404C30680838444045424684BF804642465B0545
S214404C4044D51146009800F021F98346002855D0F7
S214404C505246216900F034FCA38923F4906343F064
S214404C608003A3810BEB0A00A8EB0A03C4F810B03C
S214404C70C4F814802060A360B846BA46BB4621E715
S214404C806FF00041B94228BF39464A4691FBF3F1DE
S214404C900098666A03FB01F3E169B047B0F1000A89
S214404CA03FF71BAF38E71A462946019300F0A2FCAF
S214404CB02268019B00981A4422602146FFF7CEFCEA
S214404CC0019B00287FF428AF1F4650E7009800F06D
S214404CD0FBFF83460028C5D1009D21692846FFF783
S214404CE0B7FDB4F90C300C2223F080032A6015E798
S214404CF006F1010922E74FF0FF30BFE6009A0C2389
S214404D001360B4F90C3009E700FCFF7F2DE9F84347
S214404D1010F538771FD0884606464FF000097D6864
S214404D20BC68013D11D4A389012B05F1FF3508D994
S214404D30B4F90E3001332146304602D0C04749EA26
S214404D4000096B1C04F16804EDD13F68002FE6D1E2
S214404D504846BDE8F883B9464846BDE8F88300BFF4
S214404D60044A054B1268506B002808BF1846F030BE
S214404D70704700BF3400002064040020704700BF26
S214404D80704700BF704700BF704700BF70B50C4605
S214404D90B1F90E10002990B015461E4614DB01AA44
S214404DA001F036FB00280FDB029A02F47042A2F5AF
S214404DB00052B2FA82F252094FF480634FF4006018
S214404DC032602B6010B070BDA289002312F08000C4
S214404DD0336004D0402218462A6010B070BD4FF4AD
S214404DE080632B6010B070BD8A8992070B4606D54B
S214404DF001F1430201211A601A6159617047F0B50A
S214404E0083B001AB6A460C460646FFF7BFFF0099E3
S214404E100546304600F03AF8B4F90C30D8B1019A5D
S214404E20154F0099F76343F08003A381206020610B
S214404E3061611AB92B43A38103B0F0BD3046B4F983
S214404E400E1001F0F9FAA0B1A38923F0030343F052
S214404E5001031BB2EEE79A05EED423F0030304F1F8
S214404E60430243F002030121A38122602261616173
S214404E70E2E7B4F90C30DDE7B1464000024B0146AC
S214404E80186800F003B800BF340000202DE9F04F4A
S214404E9001F10B06162E83B0054640F29E8036F092
S214404EA0070600F1BD80B14200F2BA8000F006FC71
S214404EB0B6F5FC7FC0F09382730A00F0B880042BEE
S214404EC000F27981B30903F1390003F1380EC300CB
S214404ED0BF4F3B44A3F108015C68A14206D10CE0F9
S214404EE0002A80F2AA80E468A14206D0636823F0D4
S214404EF003039A1B0F2AF3DD70463C69DFF8E4E2B1
S214404F00744500F0AB81636823F003039A1B0F2AB5
S214404F1000F39081002AC7F814E0C7F810E080F24A
S214404F209D80B3F5007F80F06181DB0803F1010CC2
S214404F3099107A6857F83C80C4F8088001238B4063
S214404F4007EBCC0113430839E1607B6047F83C40EF
S214404F50C8F80C408210012494409C4200F28B809A
S214404F601C4206D120F0030064001C4200F10400FD
S214404F70FAD007EBC009CC468046DCF80C309C459E
S214404F8007D16DE1002A80F27B81DB689C4500F00A
S214404F906781596821F003018A1B0F2AF2DDD3F896
S214404FA00CC0D3F8088000939C19284646F00106AA
S214404FB042F001055E60C8F80CC0CCF808807C6101
S214404FC03C61C4F80CE0C4F808E065605A5000F054
S214404FD07BFB009B03F108041EE0102920D800F05C
S214404FE06DFB102618230220794F3B44A3F108029C
S214404FF05C68944200F03D816368E168A66823F0EF
S2144050000303234428465A68F16042F001028E604A
S2144050105A6000F059FB0834204603B0BDE8F08FD4
S21440502000240C2320462B6003B0BDE8F08F4020C0
S2144050304FF400734FF03F0E4AE72344E1685A6846
S214405040A66842F00102F16028468E605A6000F081
S2144050503BFB0834204603B0BDE8F08F2344284687
S2144050605A6842F001025A6000F02EFB083420468F
S21440507003B0BDE8F08FBC68636823F00308B04512
S21440508004D3A8EB06030F2B00F38580DFF8589176
S214405090504BD9F800201B680132334404EB080A11
S2144050A000F0558103F580530F3323F47F6B2BF0CC
S2144050B00F0B5946284600F0ADFF411C024600F053
S2144050C0FC80824500F2F780434B196859441960CA
S2144050D000F04D81D9F8000001301BBFA2EB0A0A50
S2144050E05144C9F80020196012F0070100F01581FC
S2144050F0C1F10800C1F580510244083102EB0B09AA
S214405100C9F30B09A1EB09094946284601930092C9
S21440511000F080FF431C9DE80C0000F04381801A9D
S214405120484440F001001968BA604944BC425060A7
S214405130196017D0B8F10F0F40F2FB806068A8F1F5
S2144051400C0222F0070204EB020E00F001004FF0C2
S214405150050C10430F2A6060CEF804C0CEF808C095
S21440516000F217811D4BBC681A68914288BF1960CF
S2144051701B4B1A689142626888BF196022F003028E
S2144051809642A2EB060301D80F2B04DC284600F01B
S2144051909BFA002440E7A21943F0010346F00106BB
S2144051A066602846BA60536000F08EFA083420469F
S2144051B003B0BDE8F08F142B71D9542B00F2A380B6
S2144051C0330B03F16F0003F16E0EC30080E600BFA1
S2144051D0D0050020680E0020380E0020600E00200B
S2144051E0640E0020D8050020D80900205A0A042A58
S2144051F05BD9142A00F2AE8002F15C01C9005B3232
S21440520007EB010C7958ACF1080C8C4500F088800F
S2144052104A6822F00302934273D289688C45F7D1DC
S214405220DCF80C207B68E260C4F808C09460CCF8D8
S2144052300C408FE6A11946F0010C42F00106C4F876
S21440524004C0284679613961C1F80CE0C1F808E02D
S2144052504E60E25000F038FA0834DDE67B6879E6C6
S21440526008F1010818F0030F0CF1080C7FF485AE26
S2144052702DE0DC68A34208BF02303FF43EAEBBE6FA
S21440528019441C464A68DB6854F8086F42F001022D
S2144052904A602846F3609E6000F016FABCE603F1CA
S2144052A05C0003F15B0EC30012E69A0902F1390175
S2144052B0C9003832A4E7BC4254D0BC68626822F0C9
S2144052C003025DE759F80839994540F0868010F0AA
S2144052D0030F00F1FF30F5D17B6823EA04037B60BF
S2144052E064009C423FF6C7AE002C3FF4C4AE1C425E
S2144052F040467FF43EAE64001C4200F10400FAD003
S21440530037E68C468CE7B3F5AA7F15D8F30B03F146
S214405310780003F1770EC300DAE54FF48051EDE6EE
S2144053207B689210012101FA02F213437B606246C9
S21440533079E70123536029E740F25452934222D83A
S214405340B30C03F17D0003F17C0EC300C0E503F10E
S214405350100BAEE6542A29D81A0B02F16F01C90089
S2144053606E324DE7204B196859441960B2E6CAF3CD
S2144053700B0000287FF4AEAE08EB0B03BA6843F090
S21440538001035360EEE67F204FF47E734FF07E0EAF
S2144053909EE504F1080128460093FFF759FA009B62
S2144053A01968DFE601204FF00009BCE6B2F5AA7F97
S2144053B005D8DA0B02F17801C900773220E740F2CF
S2144053C054518A4205D89A0C02F17D01C9007C32BC
S2144053D016E74FF47E717E2212E77B6880E7F0087E
S2144053E006F1080300E600BF380E002082B049B13F
S2144053F05AB16BB113780B601278101C18BF01209D
S21440540002B0704701A9002AF3D1104602B0704797
S2144054106FF00100F4E700BF00000000000000004D
S21440542001F0FF01102A2BDB10F0070F08D010F810
S214405430013B013A8B422DD010F0070F42B3F6D114
S214405440F0B441EA012141EA014122F007047FF02D
S21440545000070023F0E80256083C85EA010586EA84
S214405460010685FA47F5A3FA87F586FA47F6A5FAC0
S21440547087F68EB9EED1F0BC01F0FF0102F00702CC
S21440548032B110F8013B013A83EA010313B1F8D177
S2144054900020704701387047002D06BF3546033858
S2144054A0073815F0010F07D1013015F4807F02BF91
S2144054B0013015F4C03F0130F0BC0138704700BFE2
S2144054C0844641EA000313F003036DD1403A41D3CA
S2144054D051F8043B40F8043B51F8043B40F8043B89
S2144054E051F8043B40F8043B51F8043B40F8043B79
S2144054F051F8043B40F8043B51F8043B40F8043B69
S21440550051F8043B40F8043B51F8043B40F8043B58
S21440551051F8043B40F8043B51F8043B40F8043B48
S21440552051F8043B40F8043B51F8043B40F8043B38
S21440553051F8043B40F8043B51F8043B40F8043B28
S21440554051F8043B40F8043B51F8043B40F8043B18
S214405550403ABDD2303211D351F8043B40F8043BB8
S21440556051F8043B40F8043B51F8043B40F8043BF8
S21440557051F8043B40F8043B103AEDD20C3205D3C8
S21440558051F8043B40F8043B043AF9D2043208D0C0
S214405590D2071CBF11F8013B00F8013B01D30B8832
S2144055A003806046704700BF082A13D38B078DD010
S2144055B010F003038AD0C3F10403D21ADB071CBFE2
S2144055C011F8013B00F8013B80D331F8023B20F84C
S2144055D0023B7BE7043AD9D3013A11F8013B00F885
S2144055E0013BF9D20B7803704B7843708B7883700D
S2144055F0604670478842F0B50DD98B1898420AD25B
S2144056008418002A51D0224613F8014D02F8014D65
S2144056109942F9D1F0BD0F2A48D941EA00039B07C9
S21440562046D100F1100401F11003154653F8106CF2
S21440563044F8106C53F80C6C44F80C6C53F8086C37
S21440564044F8086C103D53F8046C44F8046C0F2D75
S21440565003F1100304F11004E8D8A2F1100323F07C
S2144056600F0302F00F0E1033BEF1030F194403442C
S21440567021D91E1F0D467446043C55F8047B46F857
S214405680047F032CF8D8AEF1040424F00304043459
S2144056902144234402F0030262B1013B0A4411F85C
S2144056A0014B03F8014F8A42F9D1F0BD0346F3E7B8
S2144056B00346F2E7F0BD7246EEE700BF0148FFF74B
S2144056C061BB00BF9C0E00200148FFF75DBB00BFDA
S2144056D09C0E0020C36C70B505460C464BB153F883
S2144056E0240080B1026843F8242000230361C3608D
S2144056F070BD2122042100F0E7FDE864034600283F
S214405700EDD1002070BD012101FA04F6721D284635
S214405710920000F0D9FD0028F3D044608660E4E7AC
S21440572031B1C36C4A6853F82200086043F822102F
S214405730704700BFF0B50C6983B00D46064601F1D0
S214405740140E0027DEF8000081B202FB0133010C84
S214405750180C02FB01019BB2013703EB0143BC422C
S2144057604EF8043B4FEA1143ECDC3BB1AA68944246
S21440577007DA05EB8402013453612C61284603B0F6
S214405780F0BD6968019301313046FFF7A3FF2A69EF
S214405790023205F10C01074692000C30FFF790FEEE
S2144057A0F26C6968019B52F82100286042F821504B
S2144057B03D46DEE7020C12040346B2B9030410204D
S2144057C013F07F4F04BF1B02083013F0704F04BF26
S2144057D01B01043013F0404F04BF9B000230002BE7
S2144057E002DB5B0003D4202070470020E8E701304E
S2144057F0704700BF036813F00702014607D0DA0778
S21440580021D4980721D49B080B600220704798B299
S21440581098B1104613F0FF0F04BF1B0A08301A0752
S21440582004BF1B0904309A0704BF9B080230DA07FE
S21440583007D45B0804D1202070471B0C1020E9E7F2
S21440584001300B607047002070475B080B600120FA
S214405850704700BF10B50C460121FFF73BFF012201
S2144058604461026110BD00BF2DE9F04F0C69156917
S214405870AC4283B08B46164604DA2246B3462C46E4
S2144058800E461546DBF80830DBF8041004EB050836
S2144058909845C8BF0131FFF71DFF00F1140909EB19
S2144058A0880AD145009005D24B46002143F8041B98
S2144058B09A45FBD806F1140C0CEB85030BF1140B40
S2144058C09C450BEB840E4CD2CDF804A09A46DCF8EF
