:020000040040BA
:10000000C03E0020D1124000CD124000CD12400071
:10001000CD124000CD124000CD1240000000000083
:10002000000000000000000000000000CD124000B1
:10003000CD12400000000000CD124000CD12400063
:10004000CD124000CD124000CD124000CD12400034
:10005000CD124000CD124000CD124000CD12400024
:10006000011D4000CD12400000000000551140006D
:10007000691140007D114000CD124000CD124000BA
:100080000000000000000000CD124000CD12400032
:10009000CD124000CD124000CD1240007916400034
:1000A000CD124000CD124000CD124000CD124000D4
:1000B000CD12400011174000CD124000CD1240007B
:1000C000CD124000CD124000CD12400010B5054CBD
:1000D000237833B9044B13B10448AFF300800123F4
:1000E000237010BDE8090020000000004483400098
:1000F0000C4B43B10C480D4910B5AFF300800C48D0
:10010000036823B910BD0A48036833B97047094B27
:10011000002BF7D0BDE810401847064B002BF5D058
:10012000184700BF0000000044834000EC09002095
:1001300044834000000000002DE9F04180B90C46E6
:100140009046002A0FDD8F18084E094D3068214671
:100150002B6898470134BC42F8D14046BDE8F08195
:100160004FF0FF38F9E78046F7E700BF7C0E00202C
:10017000740E0020F0B482B0C0F11100102828BF26
:100180001020002808BF01200021104D4FF4005618
:10019000374618246F630194019B5A1E0192002B6D
:1001A000FAD12E630194019B5A1E0192002BFAD1C1
:1001B00001318142EED34FF400330193019B5A1E6B
:1001C0000192002BFAD102B0F0BC704700120E4031
:1001D00082B04FF40052064B5A634FF40033019340
:1001E000019B5A1E0192002BFAD102B0704700BF4A
:1001F00000120E400B4B1B78012B02D0022B07D0B4
:1002000070474FF0C24300221A7022221A707047C2
:100210004FF0C2432C221A7000221A703C221A702E
:10022000EEE700BF040A0020C0F30742034B1A7038
:10023000C0F307221A70C0B2187070470200006144
:100240002DE9F8430746884631F0070923D00446D4
:100250000026124D2068A8476068A847A068A847F4
:10026000E068A8472069A8476069A847A069A8472F
:10027000E069A847083620344E45EBD3464508D2FE
:1002800007EB8607054D57F8040BA8470136B04524
:10029000F9D1BDE8F8834E46F0E700BF29024000DF
:1002A0004FF0C24300221A7018700A0A02331A7003
:1002B000C9B219707047000010B44FF0C243002457
:1002C0001C7018704AB14B1E501E51FA80F1044840
:1002D00013F8012F02708B42FAD110BC704700BF97
:1002E0000200006182B000230193019B984211D962
:1002F0000021094A0191019B934205D8019B0133DA
:100300000193019B9342F9D9019B01330193019B16
:100310008342EFD302B070479F86010030B4154C82
:1003200024680568A54224BF04F1FF3505601568FF
:10033000AC429CBF04F1FF3414600F4C24680D687C
:10034000A54224BF04F1FF350D601D68AC429CBF7F
:1003500004F1FF341C6004681568AC4284BF05607A
:1003600014600A681868824284BF08601A6030BC52
:10037000704700BF000000200400002082B04FF052
:10038000C24300221A70D3221A701A490B788DF8D2
:1003900000300B788DF801300B78DAB28DF802203E
:1003A0000B78DBB28DF8033003EB02239BB249F2EA
:1003B0004132934214D04FF0C24300221A701A7097
:1003C0000C490B78DAB28DF800200B7803EB02238E
:1003D0009BB249F22532934207D0012002B0704708
:1003E0000222054B1A700020F8E70122024B1A7016
:1003F0000020F3E702000061040A002008B5094B61
:100400001B78012B02D0022B06D008BD40F233111D
:100410000720054B984708BD002211462920034BB1
:100420009847F2E7040A0020A1024000B902400008
:10043000044A131F02F56F7243F8040F9342FBD175
:10044000704700BF080A00202DE9F04182B00C4639
:1004500017461E46234B1B78012B04D0022B17D0C6
:1004600002B0BDE8F08185B229465020DFF87C80DB
:10047000C047781E284481B25120C047A4B221460B
:100480005220C047013E3444A1B25320C047E7E7A1
:10049000030A8DF80430C2B28DF805207B1E184483
:1004A000000A8DF806001F4617448DF807700422D5
:1004B0000DEB02012A200C4DA847230A8DF80430C9
:1004C000E2B28DF80520731E1C44240A8DF8064004
:1004D0001E4616448DF8076004220DEB02012B2006
:1004E000A847BDE7040A0020B9024000A10240006D
:1004F00038B5074B1B78012B00D038BD0C460146A0
:100500002020044DA84721462120A847F5E700BF39
:10051000040A0020A10240002DE9F04383B0064602
:10052000AC4B9847002840F05281F022AA4B1A6049
:100530004FF4A072A94B1A60A94B1B78012B06D06F
:10054000022B00F0B580012003B0BDE8F083332119
:100550000720A44CA04700211020A0470121002023
:10056000A0474FF480710120A0474FF4E0610220C2
:10057000A04700210420A04740F207210820A047FF
:1005800000210920A04700210A20A04700210C20BB
:10059000A04700210D20A04700210F20A0470021E7
:1005A0001020A04700211120A04700211220A047C1
:1005B00000211320A047C8208B4DA84741F290216D
:1005C0001020A04740F227211120A0473220A84741
:1005D0001B211220A0473220A8474FF48851132036
:1005E000A04719212920A0470D212B20A047322008
:1005F000A84700213020A0474FF401713120A047C7
:100600004FF400713220A04707213520A04741F266
:1006100004413620A04740F205713720A04740F240
:1006200005313820A04740F207713920A04740F239
:1006300001713C20A0470E213D20A0474DF2100142
:100640000320A0474FF427416020A04701216120EB
:10065000A04700216A20A04700218020A047002158
:100660008120A04700218220A04700218320A047AD
:1006700000218420A04700218520A0471021902040
:10068000A0474FF4C0619220A0474FF48871952095
:10069000A0477368326800210846544CA047B068F0
:1006A000534B984700210846524B984700204BE790
:1006B00039238DF800302C238DF8013000248DF87B
:1006C000024034238DF8033002278DF80470052290
:1006D0006946CB20484DA8478DF80040AA238DF8E5
:1006E0000130B0238DF8023003226946CF20A8479D
:1006F00030238DF8003001226946F720A8472523D2
:100700008DF8003001226946C020A8474FF011093A
:100710008DF8009001226946C120A8475C238DF81E
:1007200000304C238DF801303A466946C520A84771
:1007300094238DF8003001226946C720A8478523FD
:100740008DF800304FF001088DF8018078238DF886
:10075000023003226946E820A8478DF800408DF852
:1007600001403A466946EA20A84748238DF8003000
:10077000424669463620A84706238DF80030424697
:1007800069463A20A8478DF8007082238DF8013021
:1007900027238DF802308DF8034004226946B620E5
:1007A000A8477368326821462046104FB847B068A2
:1007B0000F4B9847224669464846A8470A200A4BED
:1007C0009847224669462920A8472046BCE60120D2
:1007D000BAE600BF7D0340000000002004000020B6
:1007E000040A0020A1024000E50240004904400044
:1007F00031044000F1044000B9024000164B1B6870
:10080000834224D9154B1B688B4222D910B5144B57
:100810001B78012B03D0022B0DD0002010BD89B214
:1008200080B2104B9847104B9847104B1868104BEC
:100830009847002010BD00231A460E4CA0470A4BD3
:1008400098470A4B18680A4B9847002010BD0120B2
:1008500070470120704700BF000000200400002006
:10086000040A0020F1044000F5014000080A0020BD
:1008700029024000490440002DE9F04184B0039072
:100880000291019204AA42F8103D134601AA02A95E
:1008900003A8224CA04703980299009B0133019AB8
:1008A00001325B1A121A1E4CA047BDF80810BDF8A1
:1008B0000C001C4B98471C4B9847039A019B9A1AB3
:1008C000009B03F10108029BA8EB030802FB0888C8
:1008D000164BA3FB0823DB0953B15C1E144FF02613
:1008E000144D31463846A847013CB4F1FF3FF8D1DA
:1008F0000E49A1FB0831C909C1EB0111A8EB011197
:100900000B480C4B98470C4B1B680C4A1268002193
:100910000846034CA04704B0BDE8F0811D03400029
:1009200049044000F1044000F501400089888888AE
:10093000080A0020410240000400002000000020BE
:100940002DE9F04F85B0039002921378002B48D028
:100950008B460190DFF8948033E00BF1100B039B82
:10096000019329E0013CB4F1FF3F09D02B782341EA
:1009700013F0010FF6D0AAEB04013046C047F1E7AF
:1009800007240BF10F0902E0013C012C09D07B7810
:10099000234113F0010FF7D0A9EB04013046C04703
:1009A000F2E702350136009BB34202D007242F46FE
:1009B000DCE7019B0C330193029A12F8013F02928B
:1009C0007BB10A2BC9D003EB8303074D05EB8303EF
:1009D000A3F52075019E33460A3300930BF1070AF5
:1009E000E4E705B0BDE8F08FE8774000FD07400080
:1009F00030B4012404600024446040F20225C0F8B1
:100A00002051C0F80441C0F8144145685200B1FBC0
:100A1000F2F2013A120292B22B431A43426020468C
:100A200030BC70474368D201D2B219430A434260D6
:100A3000704710B44468090601F0706121430A430D
:100A4000190701F040511143416010BC7047022367
:100A500003607047012303FA01F1016170470F2918
:100A60009ABF503050F82100002070474162704713
:100A7000006B704709014250704700EB01114A605A
:100A8000704700EB01118A60704700EB0111CA60EA
:100A9000704710B489014318022444504FF0FF31CD
:100AA0009962196A5A6010BC704789010523435046
:100AB000704700EB8111CA61704700EB81114A62F7
:100AC000704700EB8111086A7047F0B486B00224C9
:100AD00001940824029420240394802404940A9C02
:100AE000E40B0594B0EB510F14D84C0CA04217D274
:100AF000012501AF57F82540B1FBF4F4260C8442E0
:100B00000AD386420DD90135052DF3D1002006B058
:100B1000F0BC70470020FAE70020F8E70120F6E774
:100B200000252AB106A901EB850151F8141C1160BA
:100B3000002BF3D01D600120E9E7436913F0020F99
:100B40001DBFC1F30801C161002001207047436946
:100B500013F0010F05D08369C3F308030B60002075
:100B600070470120704700000138022815D82DE990
:100B7000F0410E4614469AB10D46DFF838800C4F0E
:100B8000D8F8000015F8011B3B68984700280ADBDD
:100B9000A81B013CF4D1BDE8F0814FF0FF30704755
:100BA0001046BDE8F0814FF0FF30BDE8F08100BF96
:100BB000780E00207C0E002010B4AC2303600B687C
:100BC0004A68B3FBF2F31B095C1E4FF6FE729442B7
:100BD0000BD803628B68436040F20223C0F82031D7
:100BE00050230360002010BC70470120FBE78160A8
:100BF000704740697047436913F0020F1ABFC16123
:100C0000002001207047436913F0010F1DBF836965
:100C10000B7000200120704710B50E480E4B98470E
:100C20003E2100200D4B98470D4CA0470028FCD0DA
:100C30000C4B98470C4A0D4B9A620D4CA04700286C
:100C4000FCD010200B4B98470B4B98470148024BA8
:100C5000984710BD000E27078D144000F511400085
:100C60004912400059124000013F132000040E4079
:100C700069124000911140007D13400038B54FF4D7
:100C80000042464B5A600B20454CA0470C20A04721
:100C90000D20A0474FF060511320424CA0474FF069
:100CA00060511420A04740492320A0473F494C20D1
:100CB000A0474FF000624FF4C0613D483D4B98475C
:100CC0004FF080510020A0474FF080510820A047EE
:100CD0004FF080515220A0474FF000610C20A047F8
:100CE0004FF000610D20A0474FF000610E20A0479B
:100CF0004FF000610B20A0474FF000611520A04786
:100D00004FF000611620A0474FF040511720A04738
:100D10001720294B9847294D29464020A0472946AE
:100D20004120A04729464220A04729464320A0470A
:100D300029464420A04729464520A0472946462069
:100D4000A04729464720A04729464B20A0472946CF
:100D50004820A04729464F20A04729465320A047B6
:100D60004FF040514D20A04705F100552946102075
:100D7000A04729461120A0474FF000610C20A04752
:100D80004FF000610D20A0474FF000610E20A047FA
:100D90004FF000610B20A04738BD00BF50140E403B
:100DA00079124000F50E4000790000285900002813
:100DB000000E0E4015104000B90E40000100000862
:100DC00001637047416370474264B1F1C05F39D03D
:100DD00013D8B1F1006F25D0B1F1805F0AD1036F54
:100DE00013430367436F416F0B4023EA02034367DA
:100DF000426070470029FBD17047B1F1205F20D0DD
:100E000009D8B1F1005FF3D1036F13430367436F58
:100E100013434367ECE7B1F1405F12D0B1F1605F7B
:100E20000FD0E5E710B4016F046FD34321401C4697
:100E300019400167436F416F0B4023404367426095
:100E400010BC7047036F016F0B4023EA0203036776
:100E5000436F13434367CBE7416412F0010F14BFA4
:100E60004166016612F00A0F14BF0162416212F07E
:100E7000020F07D112F0080F18BFC0F884104161AB
:100E800001607047C0F88010F9E710B4019C41641C
:100E900044B9016643B1016542B941630161016032
:100EA00010BC70474166F5E74165F5E70163F5E77A
:100EB000C06C7047806C7047430903F5001303F260
:100EC00007735B0200F01F00012202FA00F0586372
:100ED0007047430903F5001303F207735B02996B34
:100EE00000F01F0201209040014214BF58631863B4
:100EF0007047000070B582B00D46430903F500133A
:100F000003F207735C0201F0F043B3F1005F53D0CA
:100F10000AD8B3F1805F2DD0B3F1C05F3BD0B3F1FD
:100F2000006F15D0002023E0B3F1405F55D0B3F13E
:100F3000605F52D0B3F1205FF4D100F01F010126B1
:100F40002A4606FA01F120462F4B984730460FE01B
:100F500000F01F000126864032464FF00061204617
:100F60002A4B984715F0010F14BF666626660120CC
:100F700002B070BD00F01F000126864032464FF0DF
:100F800080512046214B984715F0010F14BF66662B
:100F900026660120ECE700F01F000126864032465D
:100FA0004FF0C0512046194B984715F0010F14BF60
:100FB000666626660120DBE700F01F0001268640FA
:100FC00032464FF000512046104B984715F0010F64
:100FD00014BF666626660120CAE705F0605200F07D
:100FE0001F01012605EA06030093C5F38003B2F151
:100FF000605F14BF0022012206FA01F12046044C72
:10100000A0473046B4E700BF590E4000C90D40006C
:101010008B0E400070B582B005460E46144602F0B5
:10102000F043B3F1005F3DD00AD8B3F1805F21D027
:10103000B3F1C05F2AD0B3F1006F0ED0002017E0EB
:10104000B3F1405F3AD0B3F1605F37D0B3F1205FC6
:10105000F4D1234B984701200AE00A464FF0006183
:10106000204B984714F0010F14BF6E662E660120C6
:1010700002B070BD0A464FF080511A4B984714F0E9
:10108000010F14BF6E662E660120F1E70A464FF08D
:10109000C051144B984714F0010F14BF6E662E66B2
:1010A0000120E5E70A464FF000510E4B984714F037
:1010B000010F14BF6E662E660120D9E704F060525E
:1010C00004F001030093C4F38003B2F1605F14BF26
:1010D0000022012231462846034CA0470120C7E7E1
:1010E000590E4000C90D40008B0E40002DE9F84319
:1010F00081460F46124B984705464846114B984784
:10110000054013D0104C04F1600603E0B4420DD04A
:1011100010345DB12068B842F8D161682942F5D039
:10112000E3689847636825EA0305EFE7074B1B6808
:1011300023B1074B1B680BB148469847BDE8F883BD
:10114000B10E4000B50E4000C80D0020800E0020FA
:10115000380E002008B50B210148024B984708BD06
:10116000000E0E40ED10400008B50C210148024B66
:10117000984708BD00100E40ED10400008B50D2145
:101180000148024B984708BD00120E40ED10400088
:10119000174A136B23F0700318431063936E13F018
:1011A000080F0AD14FF4006311498A6E12F0080F3C
:1011B00003D1013BF9D1012070470D4A136B23F095
:1011C000030343F002031363936E13F0080F0AD175
:1011D0004FF4006306498A6E12F0080F05D1013BF7
:1011E000F9D101207047002070470020704700BFF0
:1011F00000040E40C8B9114A136A090289B223F4E7
:101200005C1323F0030343F45C1343F001030B432B
:101210001362936E13F0010FFBD0084A136A43F078
:101220009B7343F480331362704704490B6A044A8A
:101230001A40044B13430B62704700BF00040E407A
:10124000FCFFC8FE02003701024B986E00F48030AC
:10125000704700BF00040E404FF00052014B9A62ED
:10126000704700BF00040E40024B986E00F0020071
:10127000704700BF00040E4022281ED81F280CD83B
:10128000114B9A6901238340934318D0012303FA39
:1012900000F00D4B18610020704720380A4BD3F83E
:1012A00008210123834093430BD0012303FA00F06C
:1012B000054BC3F800010020704701207047002053
:1012C00070470020704700BF00040E40FEE700009A
:1012D00008B5214B214A9A4228D9214B1E4A9A42ED
:1012E0000CD2013B9B1A23F00303043313441B4924
:1012F00051F8040B42F8040B9A42F9D100BF194B84
:10130000194A9A420AD2013B9B1A23F00303043381
:101310001344002142F8041B9A42FBD1134B144A98
:101320009A60144B9847144B9847FEE70A4B0B4AB8
:101330009A42E3D20A4B0848181A1146043A02446A
:101340000028DBD0C1F1040152F8040943F8040D70
:10135000CA42F9D1D2E700BF000000204483400018
:10136000E8090020BC0E0020E809002000ED00E0A4
:1013700000004000C5284000991D40003C4B1B6BFD
:1013800003F00303032B0ED8DFE803F0021C383808
:10139000384B5B6913F0800F14BF4FF400424FF4D9
:1013A000FA42354B1A60324B1B6B03F07003702B03
:1013B00055D02F4B1A6B3049C2F302120B68D34041
:1013C0000B6070472A4B1B6A13F0807F03D02B4AB7
:1013D000294B1A60E7E72A4A274B1A60244B1B6AFD
:1013E00003F07003102B05D0202BDCD1234A224BB5
:1013F0001A60D8E7234A204B1A60D4E71C4B1B6ABB
:1014000013F0807F18D01D4A1B4B1A60184B1B6BC2
:1014100003F00303022B164A07BF916A926AD16A4E
:10142000D26A1548C1F30A41036801FB0333D2B203
:10143000B3FBF2F30360B6E7114A0F4B1A600C4B93
:101440001B6A03F07003102B05D0202BDED10B4A52
:10145000094B1A60DAE70B4A074B1A60D6E7064ACF
:1014600013680949A1FB03135B081360704700BFB1
:1014700000040E4010140E4008000020001BB700AE
:1014800000093D0000127A00ABAAAAAA1A4B9842A2
:1014900014D91A4B984219D9194B98421DD9194B96
:1014A000984221D9184B984294BF4FF00423174B10
:1014B000174A136002F50072136070474FF08063A3
:1014C000134A136002F5007213607047114B104A03
:1014D000136002F50072136070470F4B0C4A1360E3
:1014E00002F50072136070470C4B094A136002F555
:1014F00000721360704700BFFF2C3101FF59620278
:10150000FF869303FFB3C404FFE0F5050005000464
:10151000000A0E4000010004000200040003000461
:101520000A4B1B6853B1094B1B681A1808499142B2
:1015300008DB1046054A106018467047054A034B01
:101540001A60F0E74FF0FF30704700BF3C0E0020FC
:10155000FC7F0220C03E00204FF0FF3070474FF468
:1015600000534B60002070470120704700207047F7
:10157000F0B583B005460C4600230193184B984202
:101580000AD0184B98420FD0174B984214D0174BE3
:101590009D421BD003B0F0BD1F46154E2146384674
:1015A000B0470028FAD1F2E71E46114D21463046D9
:1015B000A8470028FAD1EDE71E460E4D01A9304696
:1015C000A8470028FAD1019B2370E3E71E46094D86
:1015D00001A93046A8470028FAD1019B2370D9E71A
:1015E00000060E4000080E4000400240008002400D
:1015F000070C40004F0B400070B50C46184B98424A
:101600000AD0184B984210D0174B984216D0174B5F
:1016100098421CD0002070BD1E46154D2146304614
:10162000A8470028FAD1012070BD1E46104D214662
:101630003046A8470028FAD1012070BD1E460D4D46
:1016400021463046A8470028FAD1012070BD1E4629
:10165000084D21463046A8470028FAD1012070BD28
:1016600000060E4000080E4000400240008002408C
:10167000F70B40003B0B400030B59BB000211748F2
:10168000174B98471320174B9847174A1368013B8D
:101690001360D3B1144B1B68144A1268144901A893
:1016A000144CA0476FF07F40134CA0476423F022F6
:1016B00000210846114DA8470020A04701AA052196
:1016C00008460F4B98471BB030BD0E480E4B98474D
:1016D000064B1A68044B1A60DCE700BF00000140AB
:1016E000C30A4000D30E4000240000202000002048
:1016F0009C7F4000312C40003104400079084000BC
:1017000041094000008003404F0A400000000000F3
:1017100070B588B08048814B984710F0200F67D093
:1017200005217D487E4B984784B222467D49684614
:101730007D4B984768467D4B98476FF07F407C4DC6
:10174000A8474FF4A073F02296210020794EB047AD
:101750000020A8476A469B210520774B9847774B86
:101760001B68C3EB0333764AA2FB0323B4EB531F7E
:1017700030D8744A1368744909685B1A1360714C55
:10178000226872496846684B98476846674B984795
:101790006FF07F40664DA8474FF4A073F022AB2155
:1017A0000020644EB0470020A8476A46B0210520BB
:1017B000614B98472268664B1B685B4293420EDA86
:1017C000002A4FF480116348D4BF634B634B9847A2
:1017D00008B070BD624B1A685A4B1A60CFE74FF4DD
:1017E00080115C485D4B98475D4B1A682260EFE7BB
:1017F00049484A4B984710F0010F43D00021464812
:10180000474B984784B2224656496846464B98470C
:101810006846464B98476FF07F40454DA8474FF4C8
:10182000A073F022C0210020424EB0470020A847FC
:101830006A46C5210520404B984740F674639C4298
:1018400010D840F6FF73484A1360484AC2F848323D
:101850003D4B1B68012BBBD001233B4A1360444A1C
:101860001360B5E70023404A1360404AC2F848328B
:10187000354B1B680A2BABD00A23334A13603C4A12
:101880001360A5E72448254B984710F4004F9FD0DC
:101890000F212148224B984783B240F6E44000FBD9
:1018A00003F0344B83FB00230344C017C0EBE32059
:1018B000A0F5B460304B9847304CA04714A3D3E94F
:1018C00000232F4DA84700222E4B2F4DA8472F4B0A
:1018D0009847A04702460B462D496846124CA04740
:1018E0006846124B98476FF07F40114CA0474FF469
:1018F000A073F022D52100200E4DA8470020A0475C
:101900006A46DA2105200C4B984761E7AFF3008067
:1019100096CFF23CB83BCB3F00800340710A4000B9
:101920005F0A4000687F4000312C40004D2A400093
:1019300031044000790840004109400018000020AF
:101940001F85EB511000002020000020707F400018
:101950001C000020000E0E40C50D4000C10D4000CF
:10196000140000207C7F40000C000020000002409A
:1019700024000020810008801D2840003D214000F7
:10198000E521400000003B40811E40000926400048
:10199000887F400030B5C3B03248334B9847334B53
:1019A000186842685368013B5360002B4DDB426866
:1019B0001368591C11601878A0F130034FF461606E
:1019C00000FB03F02A4B18602A4B18602A48264B6C
:1019D0009847264B186842685368013B5360002BB8
:1019E00037DB42681368591C11601878303800EBF7
:1019F00080004000214B186021481B4B98471B4B2F
:101A0000186842685368013B5360002B25DB42682D
:101A10001368591C116018781A4DA0F130034FF467
:101A2000616000FB03F0286017480F4CA047134B80
:101A30001B680F4A126829680091144902A8144DC6
:101A4000A84702A8A04743B030BD4168114B984752
:101A5000B2E741680F4B9847C8E741680D4B98477C
:101A6000DAE700BFD47F40004D2A40003800002054
:101A7000140000201000002000804000180000200A
:101A8000248040001C000020548040006C804000F6
:101A9000312C40005D2A400038B51D201C4B984772
:101AA0001C4C4FF480231C4A1C4920461C4DA8475F
:101AB00002234FF440120F2120461A4DA84700225E
:101AC00011462046184B984705212046174DA84738
:101AD00000212046A8470F212046A847144B50223A
:101AE00083F81D234FF000521A6020212046114D2B
:101AF000A84701212046A8474FF400412046A847A7
:101B0000D4F8943043F01003C4F8943038BD00BFCB
:101B1000791240000080034000A86100000E2707F2
:101B2000F1094000330A4000250A4000550A4000F0
:101B300000E100E06D0A40000F4B4FF400525A6084
:101B40001A6F42F400521A675A6F22F400525A6711
:101B50004FF00042A3F520631A61084B0022C3F83E
:101B600040224FF48052C3F84C224FF48062C3F8F5
:101B7000442204225A607047000E0E4000000240CA
:101B80002DE9F0410A201E4B98471E4C4FF00232BF
:101B9000012120461C4B98471C4A012120461C4B22
:101BA00098471C4A012120461B4B984703220121DC
:101BB00020461A4B98471A4DF0262E604FF4A07716
:101BC0006F600024AC606FF07F48C5F80C80154B47
:101BD00098472846144B98470820144B984740468E
:101BE000134B98473B46324621462046114DA847A5
:101BF000114B984721462046104B9847BDE8F0818D
:101C00007912400000000E40750A400004040A0AE0
:101C10007B0A40000A001600830A40008B0A40003D
:101C2000840E0020D10140001905400075014000DC
:101C30003104400079084000FD034000F1044000F9
:101C40002DE9F04184B0DFF8B480CDF804801D4D5B
:101C50002B680293AB68039308201B4FB8471B4CBB
:101C600001A920461A4EB0471A4B1C601A4A1B4B5A
:101C70001A601B4A1B4B1A60CDF804802B68029334
:101C8000AB6803930820B84701A92046B047164E19
:101C9000336800219868154DA847336800215868BB
:101CA000A847134B9847134B502283F808234FF44F
:101CB00080721A60012120460F4B984704B0BDE89E
:101CC000F08100BF280000207912400000060E407D
:101CD000B90B40007C0E0020F9154000780E002062
:101CE00071154000740E002038000020912A400039
:101CF0009519400000E100E0EF0B4000000E2707BF
:101D000000B583B01848194B984710F0010F02D165
:101D100003B05DF804FB0DF107011348144B98471D
:101D20009DF80730632B17D06D2B18D0622BEFD1A5
:101D300040F6FF730F4A13600F4AC2F848320F4B48
:101D40001B68012B04D001230C4A13600C4A13605A
:101D50000C480D4B9847DBE70C4B9847D8E70C48ED
:101D60000C4B9847D4E700BF00060E40F30B400031
:101D7000070C40000C000020000002402000002062
:101D800024000020C47F40004D2A400095194000E7
:101D9000008003404F0A400000B585B0244B9847AF
:101DA000244B9847244B9847244B9847244B9847FB
:101DB000244B98471720244B9847244D009503AB9C
:101DC00002AA29460120224CA047224C039A42F441
:101DD000804200212046204B9847029AB5FBF2F240
:101DE000002120461D4B98471D4B4FF40002C3F8BD
:101DF0008021402183F817131A6010220021204609
:101E0000184B984700212046174B9847174E01243E
:101E10000094002322464FF400213046144DA84779
:101E20000094002322464FF480113046A847FEE775
:101E3000190C40007D0C4000411C4000991A4000E4
:101E4000391B4000811B400079124000000E27071B
:101E5000CB0A400000000140930A4000B30A400052
:101E600000E100E0BB0A4000AB0A4000000E0E405B
:101E70008B0E400081F0004102E000BF83F0004380
:101E800030B54FEA41044FEA430594EA050F08BF15
:101E900090EA020F1FBF54EA000C55EA020C7FEAD9
:101EA000645C7FEA655C00F0E2804FEA5454D4EB56
:101EB0005555B8BF6D420CDD2C4480EA020281EA20
:101EC000030382EA000083EA010180EA020281EA58
:101ED0000303362D88BF30BD11F0004F4FEA0131AA
:101EE0004FF4801C4CEA113102D0404261EB4101B9
:101EF00013F0004F4FEA03334CEA133302D052423F
:101F000063EB430394EA050F00F0A780A4F10104FA
:101F1000D5F1200E0DDB02FA0EFC22FA05F2801834
:101F200041F1000103FA0EF2801843FA05F359411A
:101F30000EE0A5F120050EF1200E012A03FA0EFC99
:101F400028BF4CF0020C43FA05F3C01851EBE371C3
:101F500001F0004507D54FF0000EDCF1000C7EEBE0
:101F600000006EEB0101B1F5801F1BD3B1F5001F1E
:101F70000CD349085FEA30004FEA3C0C04F101043D
:101F80004FEA445212F5800F80F09A80BCF1004F66
:101F900008BF5FEA500C50F1000041EB045141EAE8
:101FA000050130BD5FEA4C0C404141EB010111F4E9
:101FB000801FA4F10104E9D191F0000F04BF014694
:101FC0000020B1FA81F308BF2033A3F10B03B3F172
:101FD00020020CDA0C3208DD02F1140CC2F10C0202
:101FE00001FA0CF021FA02F10CE002F11402D8BF60
:101FF000C2F1200C01FA02F120FA0CFCDCBF41EA2C
:102000000C019040E41AA2BF01EB0451294330BDFA
:102010006FEA04041F3C1CDA0C340EDC04F11404D7
:10202000C4F1200220FA04F001FA02F340EA0300AE
:1020300021FA04F345EA030130BDC4F10C04C4F1F4
:10204000200220FA02F001FA04F340EA03002946D4
:1020500030BD21FA04F0294630BD94F0000F83F41E
:10206000801306BF81F480110134013D4EE77FEA01
:10207000645C18BF7FEA655C29D094EA050F08BF4D
:1020800090EA020F05D054EA000C04BF194610462E
:1020900030BD91EA030F1EBF0021002030BD5FEA72
:1020A000545C05D14000494128BF41F0004130BD9A
:1020B00014F580043CBF01F5801130BD01F00045EE
:1020C00045F0FE4141F470014FF0000030BD7FEA61
:1020D000645C1ABF194610467FEA655C1CBF0B465C
:1020E000024650EA013406BF52EA033591EA030F73
:1020F00041F4002130BD00BF90F0000F04BF00216B
:10210000704730B54FF4806404F132044FF000059D
:102110004FF0000150E700BF90F0000F04BF002116
:10212000704730B54FF4806404F1320410F000457C
:1021300048BF40424FF000013EE700BF42004FEA77
:10214000E2014FEA31014FEA02701FBF12F07F43F4
:1021500093F07F4F81F06051704792F0000F14BFF1
:1021600093F07F4F704730B54FF4607401F0004535
:1021700021F0004120E700BF50EA010208BF70478C
:1021800030B54FF000050AE050EA010208BF704781
:1021900030B511F0004502D5404261EB41014FF4EA
:1021A000806404F132045FEA915C3FF4DCAE4FF0EE
:1021B00003025FEADC0C18BF03325FEADC0C18BFD5
:1021C000033202EBDC02C2F1200300FA03FC20FA26
:1021D00002F001FA03FE40EA0E0021FA02F1144473
:1021E000C1E600BF70B54FF0FF0C4CF4E06C1CEA88
:1021F00011541DBF1CEA135594EA0C0F95EA0C0FFD
:1022000000F0DEF82C4481EA030621EA4C5123EA6F
:102210004C5350EA013518BF52EA033541F480119E
:1022200043F4801338D0A0FB02CE4FF00005E1FB51
:1022300002E506F00042E0FB03E54FF00006E1FB9B
:1022400003569CF0000F18BF4EF0010EA4F1FF04DE
:10225000B6F5007F64F5407404D25FEA4E0E6D411E
:1022600046EB060642EAC62141EA55514FEAC5202F
:1022700040EA5E504FEACE2EB4F1FD0C88BFBCF5AB
:10228000E06F1ED8BEF1004F08BF5FEA500E50F15C
:10229000000041EB045170BD06F0004646EA010122
:1022A00040EA020081EA0301B4EB5C04C2BFD4EB54
:1022B0000C0541EA045170BD41F480114FF0000E4D
:1022C000013C00F3AB8014F1360FDEBF002001F0BB
:1022D000004170BDC4F10004203C35DA0C341BDC35
:1022E00004F11404C4F1200500FA05F320FA04F007
:1022F00001FA05F240EA020001F0004221F000413B
:1023000010EBD37021FA04F642EB06015EEA430EAD
:1023100008BF20EAD37070BDC4F10C04C4F12005DD
:1023200000FA04F320FA05F001FA04F240EA020090
:1023300001F0004110EBD37041F100015EEA430E61
:1023400008BF20EAD37070BDC4F1200500FA05F281
:102350004EEA020E20FA04F301FA05F243EA020300
:1023600021FA04F001F0004121FA04F220EA02000F
:1023700000EBD3705EEA430E08BF20EAD37070BD55
:1023800094F0000F0FD101F00046400041EB010135
:1023900011F4801F08BF013CF7D041EA060195F017
:1023A000000F18BF704703F00046520043EB0303D1
:1023B00013F4801F08BF013DF7D043EA06037047BE
:1023C00094EA0C0F0CEA135518BF95EA0C0F0CD0C9
:1023D00050EA410618BF52EA4306D1D181EA03010F
:1023E00001F000414FF0000070BD50EA410606BF09
:1023F0001046194652EA430619D094EA0C0F02D14E
:1024000050EA013613D195EA0C0F05D152EA033692
:102410001CBF104619460AD181EA030101F00041B0
:1024200041F0FE4141F470014FF0000070BD41F0F9
:10243000FE4141F4780170BD70B54FF0FF0C4CF4D3
:10244000E06C1CEA11541DBF1CEA135594EA0C0FF2
:1024500095EA0C0F00F0A7F8A4EB050481EA030E3F
:1024600052EA03354FEA013100F088804FEA033326
:102470004FF0805545EA131343EA12634FEA0222F4
:1024800045EA111545EA10654FEA00260EF00041B5
:102490009D4208BF964244F1FD0404F5407402D207
:1024A0005B084FEA3202B61A65EB03055B084FEA98
:1024B00032024FF480104FF4002CB6EB020E75EB95
:1024C000030E22BFB61A754640EA0C005B084FEABD
:1024D0003202B6EB020E75EB030E22BFB61A75463A
:1024E00040EA5C005B084FEA3202B6EB020E75EB85
:1024F000030E22BFB61A754640EA9C005B084FEAFD
:102500003202B6EB020E75EB030E22BFB61A754609
:1025100040EADC0055EA060E18D04FEA051545EAF8
:1025200016754FEA06164FEAC30343EA52734FEAA1
:10253000C2025FEA1C1CC0D111F4801F0BD141EA1A
:1025400000014FF000004FF0004CB6E711F4801F7F
:1025500004BF01430020B4F1FD0C88BFBCF5E06F5F
:102560003FF6AFAEB5EB030C04BFB6EB020C5FEA6F
:10257000500C50F1000041EB045170BD0EF0004EC4
:102580004EEA113114EB5C04C2BFD4EB0C0541EAF6
:10259000045170BD41F480114FF0000E013C90E6F3
:1025A00045EA060E8DE60CEA135594EA0C0F08BFB7
:1025B00095EA0C0F3FF43BAF94EA0C0F0AD150EAB6
:1025C00001347FF434AF95EA0C0F7FF425AF104649
:1025D00019462CE795EA0C0F06D152EA03353FF471
:1025E000FDAE1046194622E750EA410618BF52EAEE
:1025F00043067FF4C5AE50EA41047FF40DAF52EAC2
:1026000043057FF4EBAE12E74FEA4102B2F1E0433B
:1026100024BFB3F5001CDCF1FE5C0DD901F0004CC9
:102620004FEAC0024CEA5070B2F1004F40EB830019
:1026300008BF20F00100704711F0804F21D113F145
:102640003872BCBF01F00040704741F480114FEA7E
:102650005252C2F11802C2F1200C10FA0CF320FA07
:1026600002F018BF40F001004FEAC1234FEAD32324
:1026700003FA0CFC40EA0C0023FA02F34FEA43038E
:10268000CCE77FEA625307D150EA01331EBF4FF017
:10269000FE4040F44000704701F0004040F0FE4032
:1026A00040F40000704700BF80F0004002E000BF2F
:1026B00081F0004142001FBF5FEA410392EA030F2D
:1026C0007FEA226C7FEA236C6AD04FEA1262D2EB77
:1026D0001363C1BFD218414048404140B8BF5B427C
:1026E000192B88BF704710F0004F40F4000020F015
:1026F0007F4018BF404211F0004F41F4000121F02B
:102700007F4118BF494292EA030F3FD0A2F1010274
:1027100041FA03FC10EB0C00C3F1200301FA03F1B2
:1027200000F0004302D5494260EB4000B0F5000FD5
:1027300013D3B0F1807F06D340084FEA310102F194
:102740000102FE2A51D2B1F1004F40EBC25008BF46
:1027500020F0010040EA03007047490040EB000010
:1027600010F4000FA2F10102EDD1B0FA80FCACF13F
:10277000080CB2EB0C0200FA0CF0AABF00EBC2503E
:1027800052421843BCBFD0401843704792F0000F2C
:1027900081F4000106BF80F400000132013BB5E77F
:1027A0004FEA41037FEA226C18BF7FEA236C21D0F5
:1027B00092EA030F04D092F0000F08BF084670475A
:1027C00090EA010F1CBF0020704712F07F4F04D128
:1027D000400028BF40F00040704712F100723CBF3B
:1027E00000F50000704700F0004343F0FE4040F465
:1027F000000070477FEA226216BF08467FEA236323
:102800000146420206BF5FEA412390EA010F40F40D
:10281000800070474FF0000304E000BF10F0004359
:1028200048BF40425FEA000C08BF704743F0964340
:1028300001464FF000001CE050EA010208BF70475B
:102840004FF000030AE000BF50EA010208BF7047E2
:1028500011F0004302D5404261EB41015FEA010CF7
:1028600002BF84460146002043F0B64308BFA3F1EF
:102870008053A3F50003BCFA8CF2083AA3EBC253D1
:1028800010DB01FA02FC634400FA02FCC2F12002F0
:10289000BCF1004F20FA02F243EB020008BF20F027
:1028A0000100704702F1200201FA02FCC2F120028D
:1028B00050EA4C0021FA02F243EB020008BF20EA82
:1028C000DC70704770B50F4E0F4D761BB61018BFF9
:1028D000002405D0013455F8043B9847A642F9D1AD
:1028E0000A4E0B4D761B05F017FDB61018BF0024DD
:1028F00006D0013455F8043B9847A642F9D170BD83
:1029000070BD00BF24834000248340002C8340001E
:102910002483400070B4860746D0541E002A41D05C
:10292000CAB2034602E014F1FF343BD303F8012B93
:102930009D07F8D1032C2ED9CDB245EA05250F2CE1
:1029400045EA054519D903F110022646103E0F2E1F
:1029500042F8105C42F80C5C42F8085C42F8045CF7
:1029600002F11002F2D8A4F1100222F00F0204F0DA
:102970000F041032032C13440DD91E462246043A8C
:10298000032A46F8045BFAD8221F22F0030204321D
:10299000134404F003042CB1C9B21C4403F8011B16
:1029A0009C42FBD170BC704714460346C2E700BF8F
:1029B000F0B5054689B008460C4600F061F9AB6BEE
:1029C000214F04940126441C04A90222039405907B
:1029D000AC68069707960191029253B3636E13F0A9
:1029E000010FB4F90C309AB201D1900525D59104AC
:1029F00006D4626E43F4005322F40052A38162664F
:102A0000284601AA214602F09BFE636E00280CBFF7
:102A10000A254FF0FF35DA0702D4A3899B0502D5BA
:102A2000284609B0F0BDA06D03F066F8284609B04D
:102A3000F0BD284602F0FCFCD0E7A06D03F05AF888
:102A4000B4F90C309AB2D2E790804000024B0146B4
:102A50001868FFF7ADBF00BF3800002038B50C463E
:102A6000054608B1836B63B12846214604F094F90A
:102A700050B994E80C00013B511C84E80A0010781E
:102A800038BD02F0D5FCEFE74FF0FF3038BD00BF96
:102A900000290CBF022200224FF4806300F000B82E
:102AA0002DE9F043614C256883B004460F469046FB
:102AB0001E4615B1AB6B002B64D0B8F1020F06D0E7
:102AC000B8F1010F00F29F80002EC0F29C80636E6F
:102AD000D80734D52146284602F040FC216B41B18D
:102AE00004F14003994202D0284602F043FD00233E
:102AF0002363B4F90C300022A26162601A063AD452
:102B000023F44A6323F00303B8F1020FA3811DD01D
:102B100001AB6A462146284602F0F0FFA38918431C
:102B2000A081002E32D1009E304603F05FF80746A8
:102B300000286BD0A38943F08003A38128E0A389F8
:102B40009905C7D4A06D02F0D5FFC3E70025616EDB
:102B5000002604F1430243F002030120A660CE07E1
:102B6000A38122602261606101D498053ED5284688
:102B700003B0BDE8F0832169284602F0FBFCB4F9FC
:102B80000C30BDE7284602F053FC96E7002FCBD06F
:102B9000AB6B002B33D0009BB4F90C2027609E4216
:102BA0001CBF42F40062A281B8F1010F04BF42F0E1
:102BB0000102A28192B212F00803276166610ED071
:102BC000D1071AD5656E7642002315F00105A6617E
:102BD000A36009D00025284603B0BDE8F083A360B8
:102BE000656E15F00105F5D19305C0D4A06D02F016
:102BF00083FF284603B0BDE8F083A660F0E72846CF
:102C000002F016FCC7E74FF0FF35B0E7DDF80090A3
:102C1000B14504D0484602F0E9FF074620B9B4F9AF
:102C20000C304FF0FF3592E74E4683E73800002026
:102C30000EB4F0B59CB021AB0F4953F8042B0193AF
:102C400005466FF00044086802954FF402774FF68E
:102C5000FF7602A90695ADF8147004940794ADF8B8
:102C6000166000F07BF8029B00221A701CB0BDE8D1
:102C7000F04003B0704700BF3800002000000000A3
:102C800090F800F06DE9024520F007016FF0000CAC
:102C900010F0070491F820F040F049804FF0000454
:102CA0006FF00700D1E9002391F840F000F108002F
:102CB00082FA4CF2A4FA8CF283FA4CF3A2FA8CF367
:102CC0004BBBD1E9022382FA4CF200F10800A4FACE
:102CD0008CF283FA4CF3A2FA8CF3E3B9D1E9042322
:102CE00082FA4CF200F10800A4FA8CF283FA4CF359
:102CF000A2FA8CF37BB9D1E9062301F1200182FA13
:102D00004CF200F10800A4FA8CF283FA4CF3A2FA18
:102D10008CF3002BC6D0002A04BF04301A4612BA26
:102D2000B2FA82F2FDE8024500EBD2007047D1E929
:102D3000002304F00305C4F100004FEAC50514F0B8
:102D4000040F91F840F00CFA05F562EA05021CBF89
:102D500063EA050362464FF00004A9E72DE9F04F4E
:102D6000C3B00C460B9192460F930C9002F0B0FE4C
:102D700003681A931846FFF783FFA3891990190671
:102D800003D52369002B01F0038000230DF1C8094E
:102D90001393159314932793269318931B930993D6
:102DA000CDF89490C846169317939AF8003054467D
:102DB000E3B1252B02D119E0252B03D014F8013FF4
:102DC000002BF9D1A4EB0A0585B1269B279AC8F8F8
:102DD00000A001332A44072BC8F8045027922693F9
:102DE0007FDC08F10808099B2B4409932378002B0A
:102DF0007FD000231A468DF8773019460D939B46F5
:102E00004FF0FF3063780A9004F1010A0AF1010AD9
:102E1000A3F12000582800F2C183DFE810F0380247
:102E2000BF03BF034002BF03BF03BF03BF03BF0312
:102E3000BF0345020302BF035D006B02BF038602AE
:102E40009D039D039D039D039D039D039D039D0382
:102E50009D03BF03BF03BF03BF03BF03BF03BF0384
:102E6000BF03BF03BF0337035703BF035703BF03AA
:102E7000BF03BF03BF039803BF03BF03AD03BF037B
:102E8000BF03BF03BF03BF035902BF03BF031E033A
:102E9000BF03BF03BF03BF03BF03BF03BF03BF0322
:102EA000BF03BF03C602DB025703570357038B025E
:102EB000DB02BF03BF039002BF039D02CC01B4023B
:102EC0000802BF03E101BF037E00BF03BF030D0281
:102ED0000D980F9340420D904BF0040B9AF8003080
:102EE00094E725AA0B990C9804F036F840B9C84627
:102EF00079E7279B23B10C980B9925AA04F02CF8AD
:102F00000B9B9B8913F0400F099B18BF4FF0FF33B9
:102F10000993099843B0BDE8F08F1BF0200F11937F
:102F200040F0DD810F9A1BF0100F134640F06E85C4
:102F30001BF0400F00F06A8514880432002501233D
:102F40000F9200278DF877700A994A1C00F065826D
:102F50002BF08002079254EA050240F064820029B7
:102F600040F03C84002B40F0D7841BF001030E930B
:102F700000F0048642AE302306F8413D0A9B0E9ACB
:102F80009342B8BF134608930023129317B1089BCE
:102F900001330893079B13F00203109302D0089BA0
:102FA00002330893079B13F0840540F00E830D9BBA
:102FB000089AA3EB020BBBF1000F40F30683BBF1B1
:102FC000100F279C269A29DD43462146A846102744
:102FD0000C9C0B9D06E0ABF1100BBBF1100F03F145
:102FE000080318DD0132B74826921031072A2791CD
:102FF00083E88100EFDD25AA2946204603F0ACFFD7
:1030000000287FF47DAFABF1100BBBF1100F2799B7
:10301000269A4B46E6DC45460C4698460132A94BBB
:1030200026925C44072A279488E8080800F39884CD
:103030009DF8777008F1080877B1269B01330134B9
:103040000DF177010122072B2794269388E80600CB
:1030500000F3DB8308F10808109B6BB1269B01335A
:1030600002341EA90222072B2794269388E8060023
:1030700000F3D68308F10808802D00F015830A9B21
:103080000E9A9F1A002F36DD102F269B8E4D27DDBE
:1030900042462146B0464FF0100B2E460C9C0B9D2D
:1030A00004E0103F102F02F1080215DD013310314A
:1030B000072B2791269382E84008F2DD25AA2946AE
:1030C000204603F049FF00287FF41AAF103F102F6D
:1030D0002799269B4A46E9DC35460C4646469046EB
:1030E00001333C44072B2794269388E8A00000F383
:1030F000818308F10808079BDF0500F16882269BA1
:103100000E99C8F8006001330C44072B2794C8F8C7
:103110000410269300F34D8308F10808079B5B0712
:103120003AD50D9B089A9D1A002D35DD102D269B52
:1031300020DD10260C9FDDF82CB004E0103D102D92
:1031400008F1080816DD01335E4A26931034072B78
:10315000279488E84400F1DD25AA5946384603F053
:10316000FBFE00287FF4CCAE103D102D279C269B43
:10317000C846E8DC0133534A26932C44072B279496
:1031800088E8240008DD25AA0B990C9803F0E4FEDA
:1031900000287FF4B5AE279C099B0D9A08998A42B6
:1031A000ACBF9B185B180993002C40F00D830023E3
:1031B0002693C846F9E511931BF0200340F0E38104
:1031C0001BF0100240F02E841BF0400300F02A8414
:1031D0000F9913460A4604320C880F920025B0E678
:1031E0000F9A1193166800248DF87740151D002E54
:1031F00000F0A7860A9A531C00F009862146304643
:1032000002F0C6FF002800F0E186831B0E930A94AB
:103210000F95CDF81CB023EAE373089312949DF840
:103220007770B3E69AF8003001222B21EEE54BF0DF
:10323000200B9AF80030E9E51193002A40F09587B9
:10324000224B18931BF0200F40F011810F9A1BF0B6
:10325000100F134640F0E1831BF0400F00F0DD83B8
:10326000043314880F9300251BF0010F00F00C812C
:1032700054EA050300F0088130239DF844208DF8BE
:1032800078308DF879204BF0020B022359E69AF83A
:10329000003000297FF4BAAD01222021B6E54BF0C1
:1032A000010B9AF80030B1E50F9C23680D93184686
:1032B0000028234603F10403FFF60AAE0F939AF8A1
:1032C0000030A3E5D8804000E8804000B88040008E
:1032D0004BF0100B1BF0200F11933FF423AE0F9D0A
:1032E000073525F0070303F10802D3E900450F92E3
:1032F000012326E69AF800302A2B0AF1010400F097
:103300002787A3F130000928A24600F2AD860023EA
:103310001C461AF8013B04EB840400EB4404A3F1BF
:1033200030000928F5D90A9472E54BF0800B9AF821
:1033300000306BE54BF0400B9AF8003066E59AF8E8
:1033400000306C2B03BF9AF801304BF0200B0AF1D0
:10335000010A4BF0100B59E5002A40F011871BF0D1
:10336000200F40F0F9841BF0100F40F0AC841BF0EC
:10337000400F00F0A8840F9A136804320F92BDF832
:1033800024201A8011E50F99B34B0C681893302252
:10339000782304318DF8793011934BF0020B0F91A3
:1033A00000258DF878200223CBE50F9911930A6848
:1033B0008DF8A02000230A461F468DF8773004328E
:1033C00001230893CDF81CB00A9712970F920E9321
:1033D00028AEDFE51193002A40F0EA861BF0200FAB
:1033E0005DD11BF0100F40F008831BF0400F00F080
:1033F00004830F99B1F900400431E51722462B46AA
:103400000F91002A73F1000358DB0A999DF8777039
:103410004A1C4FF001037FF49BAD54EA050200F013
:10342000DF81CDF81CB0012B00F07B82022B40F035
:10343000068218984E46230904F00F0143EA0573EB
:103440002A091C461546435C06F8013D54EA05036B
:10345000F1D1A9EB06030E9390E51193002A40F0F9
:10346000A3867E4B18931BF0200F3FF4EFAE0F9D09
:10347000073525F0070303F108021BF0010F0F9237
:10348000D3E900457FF4F4AE02235AE51193002AF4
:1034900040F086864BF0100B1BF0200FA1D00F9D43
:1034A000073525F00705D5E90023002A05F10801B5
:1034B0001D4673F100030F911446A6DA2D276442CE
:1034C00065EB45058DF8777001233DE51193002AE2
:1034D00040F062860F9D073525F0070303F10802CF
:1034E0000F921A6815925B681493149B159D23F034
:1034F0000044284621464FF0FF32594B03F0AEFFFF
:10350000002840F04A83284621464FF0FF32544BB2
:1035100003F086FF002840F0408315A80DC81499D9
:1035200003F074FF002840F030859DF877704D4E11
:103530004D4B2BF080000790119803220021089238
:103540000A914728D8BF1E460E9212911EE54BF0F5
:10355000080B9AF8003059E4A3F1300000231C4610
:103560001AF8013B04EB840400EB4404A3F130009F
:103570000928F5D90D944BE44BF0100B11931BF077
:1035800020033FF41DAE0F9D073525F0070303F11F
:103590000802D3E900450F920023D2E41193002AD8
:1035A00040F0E785119A002A3FF4A3AC00230121E3
:1035B0001F4608918DF8A020CDF81CB08DF877300B
:1035C0000A9312930E9128AEE4E4279C34E5119BF4
:1035D000652B40F3A78015A80DC8149903F00CFFC4
:1035E000002800F05081269B204AC8F800200133B3
:1035F00001340122072B27942693C8F8042000F3F6
:103600006A8308F108081F9B139A279C934203DBE7
:10361000079BDD077FF582AD269B19991A9AC8F89A
:10362000002001330C44072BC8F80410279426937C
:1036300000F39E8308F10808139B5E1E002E7FF79F
:103640006DAD102E269B0A4D40F3F58122461027C2
:10365000DDF830B00B9C13E0B8804000A48040003F
:10366000FFFFEF7F9880400094804000D4804000AE
:10367000E880400008F10808103E102E40F3DA817F
:1036800001331032072B2792269388E8A000F1DD42
:1036900025AA2146584603F05FFC00287FF430AC91
:1036A000279A269BC846E7E70D9B089A9F1A002F8A
:1036B0007FF7E5AC102F269BB64D27DD424621460D
:1036C000B0464FF0100B2E460C9C0B9D04E0103FB3
:1036D000102F02F1080215DD01331031072B27915D
:1036E000269382E84008F2DD25AA2946204603F009
:1036F00033FC00287FF404AC103F102F2799269B41
:103700004A46E9DC35460C464646904601333C4481
:10371000072B2794269388E8A00000F3328208F153
:103720000808ACE4139B269F012B40F3FE81013770
:1037300001340123072F27942697C8F80060C8F8A2
:10374000043000F3038208F10808199A1A9BC8F89C
:10375000003001371444072F27942697C8F8042017
:1037600000F3008208F1080815A80DC8149903F0A9
:1037700043FE139B002840F00181013B01370136D5
:103780001C44072F26972794C8F80060C8F8043017
:1037900000F3278108F108081B9AC8F804200137B4
:1037A000144421AB072F27942697C8F800307FF7E1
:1037B000B3AC25AA0B990C9803F0CEFB00287FF43C
:1037C0009FAB279CC846A9E425AA0B990C9803F047
:1037D000C3FB00283FF4EBACFFF792BBDDF81CB055
:1037E000012B00F03481022B25D1CDF81CB0002430
:1037F00000251EE625AA0B990C9803F0ADFB0028C6
:103800007FF47EAB279CC84675E425AA0B990C98DB
:1038100003F0A2FB00287FF473AB279CC8461BE48F
:1038200025AA0B990C9803F097FB00287FF468AB4E
:10383000279CC84620E4CDF81CB00024002549464A
:1038400000E03146E20842EA4572E80804F0070366
:1038500005461446303354EA050201F8013C01F1F3
:10386000FF36EED1079AD2077FF5F3AD302B3FF448
:10387000F0AD0239302306F8013CA9EB01030E93A9
:103880000E46FFF77BBB1F99002940F32E82129B47
:10389000139A9342A8BF1346002B1F460DDD269BAB
:1038A000C8F8006001333C44072B2794C8F8047023
:1038B000269300F31F8308F10808129B002FA8BF6E
:1038C000DB1B002B1F4640F3D680102F269B314D6B
:1038D00040F3ED8142462146B0464FF0100B2E4694
:1038E0000C9C0B9D04E00832103F102F40F3DB814D
:1038F00001331031072B2791269382E84008F2DD2F
:1039000025AA2946204603F027FB00287FF4F8AAC1
:103910002799269B4A46E7E70A9B0E934E46FFF7F8
:103920002DBB002D08BF0A2CC0F08F804E462046CC
:1039300029460A22002303F0CFFD303206F8012D7C
:103940002046294600230A2203F0C6FD04460D4600
:1039500054EA0503EBD1A9EB06030E93FFF70EBB68
:1039600025AA0B990C9803F0F7FA00287FF4C8AA4F
:103970009DF87770279CC846FFF75EBB5E1E002E41
:103980007FF70AAF102E034D22DD22464FF0100BB9
:103990000C9C06E0E8804000103E102E08F108085C
:1039A00015DD01371032072F2792269788E8200867
:1039B000F2DD25AA0B99204603F0CEFA00287FF409
:1039C0009FAA103E102E279A269FC846E9DC14466F
:1039D00001373444072F2794269788E860007FF743
:1039E000D9AE25AA0B990C9803F0B6FA00287FF4FB
:1039F00087AA279C269FC846CEE60F9A14681346CE
:103A00000433E5170F9322462B46FAE404321C6870
:103A10000F9201230025FFF794BA1C6804330F931B
:103A2000002521E40F990A4604320C680F92002504
:103A3000FFF787BA144601333444072B27942693A3
:103A400088E860007FF768ABB3E6DDF81CB0CDF81E
:103A50001CB042AE3034012306F8414D0E93FFF7FF
:103A60008DBA25AA0B990C9803F076FA00287FF4FA
:103A700047AA279CC8461F9A139B9A4244DB079B80
:103A8000D90741D4139B12989A1A1D1A9542A8BFC0
:103A90001546002D0EDD2699C8F804500131064464
:103AA0002C440729C8F800602794269100F33B8234
:103AB00008F10808002DACBF561B1646002E7FF7F4
:103AC0002DAB102E269BB04DB5DD22461027DDF81C
:103AD00030B00B9C04E008F10808103E102EA9DD60
:103AE00001331032072B2792269388E8A000F2DDDD
:103AF00025AA2146584603F02FFA00287FF400AA91
:103B0000279A269BC846E8E7269B19981A99C8F871
:103B1000001001330444072B2794C8F804002693AF
:103B200000F3F58108F10808ACE7079BDA073FF5D9
:103B3000FEAD013701340123072F27942697C8F8DB
:103B40000060C8F804307FF725AE4AE725AA0B9934
:103B50000C9803F001FA00287FF4D2A9279C269F35
:103B6000C846F2E525AA0B990C9803F0F5F9002850
:103B70007FF4C6A9279C269FC846F5E54E46FFF769
:103B8000FDB925AA0B990C9803F0E6F900287FF4FB
:103B9000B7A9279CC846FFF772BA159C2246204653
:103BA000149C2346214603F059FC002840F08682ED
:103BB0000A9B0133119B23F020030E9300F0E28156
:103BC000472B00F01E814BF480730793149B1F1E3C
:103BD000159B0893BBBF3B4603F1004700232D23F1
:103BE0001093119B662B00F0BB81462B00F0DF8009
:103BF0000E9B089A452B0CBF0A9B0A9D23A820A95F
:103C000008BF5D1C049003911FA802213B4602904F
:103C1000019500910C9800F0D7FB119B672B06468D
:103C200040F0E0811BF0010F00F046827419169AF3
:103C30000898179B394603F0DFFB002840F06581A8
:103C4000239BA34206D230215A1C23921970239B36
:103C50009C42F9D89B1B13930E9B472B00F0E980E5
:103C6000119B652B40F3CD81119B662B1F9B1293FB
:103C700000F09E81139B129A1946914200F38A81AB
:103C80001BF0010F40F0138222EAE27308936723CE
:103C90000E921193109B002B40F0C4800A939DF864
:103CA0007770FFF773B935460C46464690460133A8
:103CB0003C44072B2794269388E8A0003FF7D1AE19
:103CC00008F10808D7E60F9A136804320F92099A90
:103CD0001A60FFF76AB825AA0B990C9803F03CF913
:103CE00000287FF40DA9C8468DE4269B274AC8F812
:103CF0000020013301340122072B27942693C8F8B2
:103D0000042072DC08F1080829B9139B1BB9079B32
:103D1000D8077FF503AA269B19981A9AC8F800209D
:103D2000013302462244072B2792C8F80400269349
:103D300000F38D8108F108080029C0F2658113990C
:103D4000C8F8006001338C18072B27942693C8F815
:103D500004107FF7E1A92CE50F9A09991368CD1794
:103D60000846043229460F92C3E90001FFF71DB847
:103D700025AA0B990C9803F0EFF800287FF4C0A84F
:103D8000279CC84658E400BFE8804000D48040002B
:103D900040210C9801F032FF0B9A1060106100284E
:103DA00000F0F2810B9A40235361FEF7EEBF23A887
:103DB00020A90A9C049003911FA803210290089A4D
:103DC00001943B4600910C9800F0FEFA2546064609
:103DD000119B462B06EB05047FF429AF3378302B7B
:103DE00000F078811F9D2C4421E725AA0B990C989F
:103DF00003F0B2F800287FF483A81F99279CC846D7
:103E000082E70A9B002B08BF01230A93DBE63046BA
:103E10000A94FEF735FF0F950E90CDF81CB00346BF
:103E2000FFF7F9B92D2700238DF877700A93FFF774
:103E3000AEB81F9B12931A46033304DB0A9B194644
:103E40009142BFF617AF119B023B11939DF844308E
:103E50008DF88430129B013B002B1F93BDBF129B3A
:103E6000C3F101032D222B22092B8DF8852040F36D
:103E700016810DF193042046AB4D00E0104685FB02
:103E80000312D917C1EBA20101EB8102A3EB42029D
:103E90003032092900F8012C0B4600F1FF32EDDC2D
:103EA00030330238D9B2844202F8011C40F26581F5
:103EB0000DF18600134601E013F8011B00F8011B09
:103EC000A342F9D101339B1A0DF18602134421AAB2
:103ED0009B1A139A1B93012A13440E9340F31981E2
:103EE0000E9B199A13440E9323EAE373089300235D
:103EF0001293CFE625AA0B990C9803F02DF8002811
:103F00007EF4FEAF279CC846D7E42346A2E625AA46
:103F10000B990C9803F020F800287EF4F1AF1F9A5B
:103F2000279CC846AEE525AA0B990C9803F014F817
:103F300000287EF4E5AF1F9A139B279C9A1AC84667
:103F4000B8E50A9B1296062B28BF06230A96374629
:103F500008930F95CDF81CB00E93744EFFF716B86A
:103F600023A820A90A9D049003911FA80321029071
:103F7000089A01953B4600910C9800F025FA0646F8
:103F800044192BE706230A931DE62D278DF8777039
:103F9000FFF7CDBA199A139B1344129A0E93002A75
:103FA00040F3B08023EAE37308936723119371E62B
:103FB000002B40F3C3800A9A002A40F099801BF03E
:103FC000010F40F0958008930E9363E60A9B0893D7
:103FD0000E930A900F95CDF81CB012909DF8777053
:103FE000FEF7D4BF119B472B7FF420AE1BF0010FCF
:103FF0007FF4EEAE239B9B1B13930E9B472B3FF44A
:1040000018AF1F9B129321E74F421031484D2FDA12
:104010001024DDF830B004E008F10808103F102F3C
:1040200026DD01331032072B27922693C8F8005063
:10403000C8F80440F0DD25AA0B99584602F08CFF21
:1040400000287EF45DAF279A269BC846E6E725AA9E
:104050000B990C9802F080FF00287EF451AF1F9955
:10406000279A269BC84667E600200A90FEF7D0BE36
:1040700001333A44072B88E8A0002792269308F1E1
:1040800008087FF75CAE25AA0B990C9802F064FF34
:1040900000287EF435AF279A269BC8464FE630337A
:1040A00030228DF887308DF8862022AB0FE7129BE7
:1040B000199A13440E9375E7239BCBE5149B1D4E71
:1040C000002BB6BF2D279DF877708DF877701A4BAF
:1040D000FFF72FBA169A0898179B394603F08CF908
:1040E00000287FF47FAEC5F101051F952C449EE5A5
:1040F000129B199A13440A9A1A4422EAE2730E9206
:104100000893C7E5129B0E9AC3F101031A441346A4
:10411000D0E71BF0010312937FF4E2AE0E9B23EA7B
:10412000E3730893B6E500BF67666666CC8040001F
:10413000E8804000A08040009C8040000A9B13B9AA
:104140001BF0010F02D0199B0133D4E701233AE79A
:104150000F9D9AF80130286840EAE0700A902846DE
:104160000430A2460F90FEF751BE8DF87710FFF78E
:1041700067B88DF87710FFF715BA0DF18603A6E63C
:104180008DF87710FFF7EBB80C9A0C2313604FF003
:10419000FF330993FEF7BDBE8DF87710FFF79AB98C
:1041A0008DF87710FFF776B98DF87710FFF759B9CA
:1041B0008DF87710FFF712B938B5304B1B680546FC
:1041C0000C4613B19A6B002A38D0B4F90C2093B284
:1041D00018070CD52069A8B113F001021ED063693D
:1041E00000225B42A361A260F0B1002038BDD90675
:1041F0003CD5580726D4206942F00803A3819BB21E
:104200000028E9D103F42072B2F5007FE4D02846FB
:10421000214601F0A1FCA3892069DDE7990758BF79
:104220006269A2600028E0D1B4F90C301A06DDD52D
:1042300043F04003A3814FF0FF3038BD184601F032
:10424000F7F8C2E7216B51B104F14003994204D061
:10425000284601F08FF9B4F90C20002323630023D2
:104260002069636022F024022060C5E742F040022A
:1042700009232B604FF0FF30A28138BD38000020A9
:10428000024B13B1024800F005B87047000000006F
:10429000A1544000002301461A46184602F0FEBE13
:1042A00002690B69934200F38D802DE9F04F03F111
:1042B000FF3801F1140700F1140B57F828205BF8C0
:1042C00028304FEA880483B00132B3FBF2F90BEBDC
:1042D0000403009407EB040A0193B9F1000F39D0ED
:1042E00000252E46BC46DE465CF8044BDEF8003066
:1042F000A2B209FB0255220C2C0C09FB0242ADB202
:10430000751B96B2C6EB134615FA83F306EB2346EC
:104310009BB243EA0643E2454FEA12454EF8043B9E
:104320004FEA2646E0D2009B5BF8033093B9019C2C
:10433000231F9B450CD254F8043C4BB9A4F108034D
:1043400002E01A68043B1AB99B4508F1FF38F8D31C
:10435000C0F81080044602F073FA00282EDB09F141
:1043600001095D46002357F8041B28688AB29A1A8F
:104370000B0C12FA80F2C3EB104303EB224392B210
:1043800042EA0342BA4545F8042B4FEA2343EAD2F6
:104390005BF828200BEB880382B91A1F93450BD2D8
:1043A00053F8042C42B9083B02E01A68043B1AB9DE
:1043B0009B4508F1FF38F8D3C4F81080484603B095
:1043C000BDE8F08F002070472DE9F04F016C9BB0E5
:1043D0000446279E92469B4641B1426C4A600123A7
:1043E00093408B6002F054F800232364BBF1000F6C
:1043F0005D4635DB002333609D4BAB4315D0504603
:1044000059460022002302F0F7FF804600282DD0F5
:10441000269A01231360289B002B00F0BD8095484D
:10442000186001381BB0BDE8F08F269A42F20F7376
:104430001360BAF1000F0DD1C5F3130555B9289BD0
:104440008D48002BEED000F10803289A13601BB0B2
:10445000BDE8F08F289B8948002BE3D0C31CF4E70C
:1044600001232BF000453360AB46C5E718AA19AB12
:104470000192009352465B46204602F081FA2B0DD2
:10448000814671D0CBF3130242F07F51189FCDF8D3
:1044900050805046A3F2FF3641F440110022784B81
:1044A000FDF7ECFC6CA3D3E90023FDF79BFE6CA3A6
:1044B000D3E90023FDF7E4FCCDE902013046FDF726
:1044C0002BFE69A3D3E90023FDF78CFE02460B46C1
:1044D000DDE90201FDF7D4FCCDE9040102F0D4FFCF
:1044E000002202900023DDE9040102F08FFF002882
:1044F00040F07381029D162D00F25D81614B03EB4C
:10450000C503D3E9000152465B4602F09DFF002837
:1045100000F0C5816B1E029300230E93BF1B7B1E10
:10452000069300F1548100230893029B002BC0F2F4
:104530004581069A0D9311461944002306910C9368
:10454000249B092B2AD8052B40F35B86043B24933C
:104550000025249B023B032B00F24286DFE813F088
:10456000D403C902DF036104189F199E3E4406F27A
:104570003243202B40F38E81C3F1400306F21240F8
:104580009D402AFA00F02843FDF7B6FD0123013EC5
:10459000A1F1F871149381E73B4843E7002161647E
:1045A0002046259101F04EFF4FF0FF330A93259AE4
:1045B0000F9301230490206424920B93199B002BEA
:1045C000C0F2D980029A0E2A00F3D5802D4B03EB5E
:1045D000C203D3E90023CDE90823259B002BC0F2B9
:1045E000BA83DDE9085650462A4633465946FDF758
:1045F00023FF02F049FF8046FDF78EFD2A46334631
:10460000FDF7F0FD0B46024659465046FDF736FCD5
:10461000049D08F130032B700A9B012B06460F46C0
:1046200005F1010568D00022184BFDF7DBFD0022E3
:10463000002306460F4602F0DFFE002840F0888087
:10464000CDF82C904FF0000ADFF840B00C94DDE973
:10465000088928E0AFF3008061436F63A787D23FEA
:10466000B3C8608B288AC63FFB799F501344D33F61
:104670000000F07FD5804000F880400004814000B9
:104680000000F83F40814000D480400000002440FA
:10469000FDF7A8FD0022002306460F4602F0ACFEFF
:1046A000002840F0C18342464B4630463946FDF76C
:1046B000C3FE02F0E9FE0446FDF72EFD42464B46DE
:1046C000FDF790FD02460B4630463946FDF7D6FB16
:1046D00004F1300E049E05F801EBA5EB060E0A9ED0
:1046E000B645CDE9060152465B46D1D1A046DDF87C
:1046F0002C900C9C06460F4632463B4630463946C7
:10470000FDF7BEFB06460F4602460B46DDE90801F3
:1047100002F07CFE48B932463B46DDE9080102F072
:104720006BFEA8B118F0010F12D015F8018C049A95
:104730006B1E04E09A4200F0018413F8018DB8F179
:10474000390F03F10105F5D008F1010883F8008065
:104750004946204601F09CFE0022029B2A70269AC0
:1047600001331360289B002B00F09E8304981D608A
:104770001BB0BDE8F08F0B9A002A3ED0249A012A84
:1047800040F311830A9B0C9A5F1EBA42C0F28F83DA
:10479000D71B0A9B002BC0F28B84089D0A9B089AAA
:1047A0001A440892069A01211A442046069201F002
:1047B00009FF064624E001230E93AFE6089A029B08
:1047C000D21A5B420C93002308920D93B8E6C7F10E
:1047D0000103089300230693A7E6029D2846FDF7F0
:1047E0009BFC02460B46DDE9040102F005FE0028B1
:1047F0007FF480AE6B1E02937CE60C9F089D0B9E9F
:10480000002D0CDD069900290B4608DDA942089A07
:10481000A8BF2B46D21AED1ACB1A089206930C9B0E
:10482000D3B10B9B002B00F0B782002F10DD314677
:104830003A46204601F062FF4A46014606462046B7
:1048400001F0CAFE49468046204601F021FEC146DD
:104850000C9BDA1B40F0A1820121204601F0B2FE40
:104860000D9B002B80461CDD01461A46204601F0B8
:1048700045FF249B012B804640F3548200230C9378
:10488000D8F8103008EB8303186901F04BFEC0F133
:10489000200010E0C3F120050AFA05F074E60E903E
:1048A0003CE6249B012B40F3878200230C930D9B55
:1048B0000120002BE4D1069A104410F01F0000F0F4
:1048C000A180C0F12003042B40F39E84089BC0F11B
:1048D0001C00034408931346034405440693089BB5
:1048E000002B05DD49461A46204601F057FF814658
:1048F000069B002B05DD41461A46204601F04EFF7F
:1049000080460E9B002B40F086800A9B002B40F3D4
:1049100066820B9B002B00F09880002D05DD314650
:104920002A46204601F03AFF06460C9B002B40F039
:10493000378306960A9B049ADDF818B0013BD3181A
:104940000B930AF001030C931746C24651464846A2
:10495000FFF7A6FC31460546484601F071FF5A466E
:104960000A905146204601F087FFC268804605F153
:104970003003002A40F02B8201464846089301F09C
:104980005FFF41460690204601F082FD069A089B93
:1049900032B9249921B90C9A002A00F0EF83249AA5
:1049A0000A990029C0F29F8205D1249919B90C995E
:1049B000002900F09882002A00F306830B9A3B70CE
:1049C00007F101089742454600F00C834946002351
:1049D0000A22204601F066FD5E45814631464FF0D1
:1049E00000034FF00A02204600F0EB8101F05AFD6F
:1049F0005946064600230A22204601F053FD474649
:104A00008346A3E71C20089B03440893069B0344AA
:104A10000544069363E74146484601F011FF00282C
:104A2000BFF673AF029F494600230A222046013F8A
:104A3000029701F037FD0B9B8146002B40F0B683B7
:104A40000F9B002B40F3BF830A93DDF810B00A9F41
:104A50005D4602E001F026FD814641464846FFF7EB
:104A60001FFC00F1300A05F801ABA5EB0B03BB42BC
:104A70004FF00A024FF0000349462046EADB049B50
:104A80000A9A012AACBF9B1801331D464FF0000B58
:104A900049460122204601F081FE4146814601F04F
:104AA000CFFE002840F33D8215F8012C04996B1EBF
:104AB00004E08B4200F0AE8113F8012D392A03F196
:104AC0000105F6D001321A704146204601F0E0FCA3
:104AD000002E3FF43DAEBBF1000F05D0B34503D02F
:104AE0005946204601F0D4FC3146204601F0D0FC66
:104AF0002EE600230B93029B259A13440F93013358
:104B0000012B1F461E460A93B8BF01270021172F0D
:104B100061640AD9012204235B0003F11400874277
:104B2000114602F10102F7D26164204601F08AFCCD
:104B30000E2E049020643FF641AD002D3FF43EADB3
:104B400002990029CDE910AB40F30282B84B01F085
:104B50000F020D1103EBC203E906D3E9006740F130
:104B6000AE81B44B50465946D3E90823FDF764FCA7
:104B7000CDE9120105F00F054FF0030A8DB1DFF802
:104B8000B482EA0709D530463946D8E90023FDF753
:104B900029FB0AF1010A06460F466D1008F10808C4
:104BA000EFD13B463246DDE91201FDF745FC0746F1
:104BB00088460E9B43B100229F4B3846414602F087
:104BC00025FC002840F086825046FDF7A5FA3A46BB
:104BD0004346FDF707FB994B0022FDF751F90A9B6D
:104BE0000546A1F15076002B00F03E81029B159303
:104BF0000A9B12930B9B002B00F0FA81129A8C4BAC
:104C00008F4903EBC20353E902230020FDF714FC94
:104C10002A463346FDF732F982468B4638464146EE
:104C200002F032FC0546FDF777FA02460B4638469D
:104C30004146FDF723F930355FFA85F8049D0646B5
:104C40000F4685F8008002460B465046594601350E
:104C500002F0FAFB002854D132463B460020764948
:104C6000FDF70CF902460B465046594602F0ECFBA4
:104C7000002840F07082129A012A00F01181129BE4
:104C8000049ACDF84890134499460DE000206A49F3
:104C9000FDF7F4F852465B4602F0B8FB002840F0FE
:104CA00058824D4500F0FA80504659460022654B27
:104CB000FDF798FA0022634B82468B463046394610
:104CC000FDF790FA0F46064602F0DEFB8046FDF740
:104CD00023FA02460B4630463946FDF7CFF808F175
:104CE00030085FFA88F852465B4605F8018B0646A5
:104CF0000F4602F08BFB32463B460028C6D0DDF85B
:104D00004890159B029323E500230B93259B002BD2
:104D100040F3DC801F461E460F930A93F6E60123FC
:104D20000B93F3E7BAF1000F7FF4A8ADCBF31303B5
:104D3000002B7FF4BAAD2BF000473F0D3F05002F4D
:104D400000F00D82089B01330893069B0133069304
:104D500001230C93ABE50A9B002B3FF742AC40F0DC
:104D600021820022384BDDE90801FDF73BFA52466B
:104D70005B4602F05FFBDDF828804646002841D004
:104D8000259B049DDB4302934146204601F080FBB6
:104D9000002E3FF4DDACA7E60C9A4946204601F010
:104DA000ADFC814658E5149A002A00F0878103F291
:104DB00033430C9F089DF2E4BAF1000F7FF475AD08
:104DC000B4E701F06FFB474606468346BEE5014661
:104DD0002046069301F05CFB0122069BE0E5249B44
:104DE000022B7FF796AD0A9B002BC9D141460522C5
:104DF000204601F057FB01468046484601F020FD61
:104E00000028BDDD029A04993123013202920B7011
:104E10004D1CB9E7029A01320292049A31231370B1
:104E200052E601230B9366E6DDF82C900C9C8FE490
:104E300040814000188140000000F03F00001C400D
:104E40000000E03F00002440000014405046FDF701
:104E500063F93A464346FDF7C5F90022C14BFDF719
:104E60000FF80546A1F1507641460022BE4B384668
:104E7000FDF704F82A46334682468B4602F0E4FAF0
:104E80008046002840F010812A4606F10043504633
:104E9000594602F0BBFA18B1464671E7DDF8489072
:104EA000DDE910ABFFF78ABB0498FFF7BBBA0C9B98
:104EB0000D9A0C97FB1A1A440D92002769E4DDE95C
:104EC00010234FF0020ACDE9122357E600210123F7
:104ED00061642046259301F0B5FA259B0490206477
:104EE0000A930F9329E6002AD046CDF818B09A46C7
:104EF00011DD49460122204601F050FC4146814621
:104F000001F09EFC002840F34681BAF1390F00F011
:104F1000068105F1310AB34687F800A07D1C069E84
:104F2000D2E504D11AF0010F01D0BDE5154615F800
:104F3000013C302B05F1FF32F8D0C5E50499302251
:104F40000A70029A15F8018C01320292FFF7FCBB3D
:104F500000F0BB80029B5D42844B05F00F0203EB27
:104F6000C203D3E90023DDE91001FDF73BF92D1160
:104F70000746884600F02C817D4E4FF0020AEB0771
:104F800009D538464146D6E90023FDF72BF90AF149
:104F9000010A074688466D1006F10806EFD108E6BB
:104FA0007168204601F04EFA336902339A000546D3
:104FB00006F10C010C3001F03BF929460122204694
:104FC00001F0ECFB0690B5E4392BCDF818B0D046D3
:104FD00000F0A58003F1010AB34687F800A07D1C0C
:104FE000069E71E55A46D046B3469A4616464FE5A8
:104FF000129B5E4901EBC3012A46334651E9020187
:10500000FDF7F0F8CDE916013846414602F03CFACA
:105010000546FDF781F80B46024641463846FCF747
:105020002DFF129B0F4604993035012B0D7006465B
:1050300001F1010526D0129B049ADFF83CB1CDF8AE
:10504000489013444FF0000A994652465B4630465A
:105050003946FDF7C7F80F46064602F015FA8046B6
:10506000FDF75AF808F1300802460B46304639463B
:10507000FCF704FF05F8018B4D4506460F46E4D1C9
:10508000DDF848903B4B0022DDE91601FCF7F8FE05
:1050900032463B4602F0BAF9002846D0159B0293EF
:1050A00015F8018CFFF743BB4FF000084646A9E610
:1050B000089B0A9A9D1A0023FFF771BB189B0C9F4F
:1050C000089DC3F13603FFF76ABBDDE910784FF0A6
:1050D000020A6EE50A9B002B3FF4B8AE0F9B002B33
:1050E0007FF7DEAE0022244B38464146FDF77AF8C2
:1050F000074688460AF10100FDF70EF83A46434696
:10510000FDF770F80022174BFCF7BAFE029A0F9BCE
:105110001293013A0546A1F1507615926AE53922BB
:10512000B3463A70069E7D1CC0E4DDE916230020DC
:105130001049FCF7A3FE32463B4602F085F908B958
:10514000AEE6154615F8013C302B05F1FF32F8D0DC
:10515000D7E5DDF84890159B0293FFF7E8BA0C9766
:10516000FFF7A5BB00001C40000014404081400038
:10517000188140000000E03F00002440392BCDF8AA
:1051800018B0D046DDF828B09A46C8D0BBF1000F61
:105190003FF7BFAEBFE67FF4BEAE1AF0010F3FF49B
:1051A000BAAEB2E64FF000084646E9E531460023C4
:1051B0000A22204601F076F90F9B002B06460ADDF5
:1051C0000A93FFF7AABB249B022B23DC0F9B3BE433
:1051D0004FF0020AEDE4249B022B1BDC0F9BEFE750
:1051E000002565642946204601F02CF94FF0FF3375
:1051F0000A930F9301230490259520640B93FFF7E6
:10520000DDB90125FFF7A5B93FF469ABC0F13C005A
:10521000FFF7F9BB0F9B0A93E5E500BFB1F90C302E
:105220009AB22DE9F0410D46110780463AD46A68DA
:1052300043F40063002AAB816FDDAC6A002C49D0D7
:1052400000229BB2D8F80060C8F8002013F4805206
:1052500067D02A6D5F0705D569682B6B521A0BB1B1
:10526000EB6BD21A0023E9694046A047441C3CD0AE
:10527000B5F90C302A692A6023F400630022AB815F
:10528000DB046A6047D4296BC8F8006011B305F1EC
:105290004003994202D0404600F06CF90020286398
:1052A000BDE8F0812E69AEB12C682E6091070CBF6D
:1052B0006B690023A41BAB600AE0234632466F6A89
:1052C000E9694046B8470028A4EB0004064404DD21
:1052D000002CF2DC0020BDE8F081AB8943F04003F4
:1052E000AB814FF0FF30BDE8F081D8F800401D2CB5
:1052F000F3D8194BE340DB4313F00103EDD1B5F9CB
:105300000C206B6022F400632969AB81DA04296008
:10531000B9D5002CB7D12865B5E7EA6B002A8CDC3B
:10532000D8E70123E9694046A047431C024602D062
:10533000AB89AC6A8EE7D8F80030002BF8D01D2B73
:1053400001D0162B02D1C8F80060C3E7AB8943F047
:105350004003AB81BDE8F0810100402038B50D4627
:10536000044608B1836BBBB1B5F90C0088B16B6E14
:10537000DB0701D4810517D520462946FFF74EFFEC
:105380006B6EDA07044602D4AB899B0507D520462D
:1053900038BD0446204638BD00F04AF8E4E7A86D61
:1053A00000F0AAFB204638BDA86D00F0A3FBE3E7A0
:1053B00020B1054B01461868FFF7D0BF034B0449E5
:1053C000186800F05BBB00BF380000208C804000F4
:1053D0005D534000014900F051BB00BFE571400042
:1053E00010B5002304468181C2810360436083605D
:1053F0004366036143618361194608225C30FDF70F
:1054000089FA07480749084A084B2062E46161624B
:10541000A262E36204F15800BDE8104000F066BBF0
:10542000D16E4000F56E4000316F4000516F40007A
:1054300010B50446124800F05DFBA26BD2B904F52A
:105440003B731048C4F8E8320321C4F8E022E0635B
:10545000C4F8E41260680421FFF7C2FF01220921A9
:10546000A068FFF7BDFF02221221E068FFF7B8FF36
:105470000123A3630248BDE8104000F03DBB00BF1C
:10548000A00E0020D5534000014800F033BB00BF00
:10549000B40E0020014800F02FBB00BFB40E002066
:1054A00038B50A4C0A4D641BA4100AD004F180439D
:1054B000013B05EB8305013C55F804399847002C66
:1054C000F9D1BDE8384002F031BF00BF3C83400055
:1054D00038834000F8B5244F0C46064600F0A6FF7E
:1054E000BB685D68C4F57E610F3125F00305294472
:1054F00021F47F6121F00F01A1F58054B4F5805FA4
:1055000007DB0021304601F0D1FCBB682B449842F8
:1055100004D0304600F090FF0020F8BD61423046D4
:1055200001F0C4FC01300DD0104BBA6819682D1B76
:1055300045F001053046091B5560196000F07CFFFD
:105540000120F8BD0021304601F0B0FCBA68831A92
:105550000F2BDEDD064C0549246843F00103001BD8
:1055600053600860D5E700BFD8050020400E00203A
:10557000E0090020002944D02DE9F0410D46804685
:1055800000F054FF55F8047C694927F00103A5F1A8
:105590000804E2188E685068B24220F003005ED022
:1055A000FE0750600BD455F8087CE41B01F1080E8F
:1055B000A56875453B446DD0E768EF60BD60151880
:1055C0006D68ED073ED543F001026260E350B3F52C
:1055D000007F17D2DB08581C9A104D6851F83070C4
:1055E000A7600123934001EBC0022B43083AE2601D
:1055F0004B6041F83040FC604046BDE8F04100F0AF
:105600001BBF70475A0A042A52D89A0902F1390777
:10561000FF0002F13805C819CA59083890424FD026
:10562000516821F003018B4232D292689042F7D147
:10563000C368A060E3609C60C4604046BDE8F04180
:1056400000F0FABE95683B4FBD42034440D0D0689D
:10565000E86043F0010285606260E350B7E7FF074E
:10566000034407D455F8082CA41A1344A068E26830
:10567000C2609060304A126843F00100934260605B
:105680008C60B9D32D4B40461968FFF723FFB3E771
:105690001046CDE711184968C90744D49168D2680B
:1056A000CA60034443F0010091606060E350A3E7E7
:1056B000142A16D802F15C07FF0002F15B05AAE785
:1056C000AA1001234D6893402B434B600346B0E77B
:1056D00043F001024C610C61E560A5606260E3503B
:1056E0008AE7542A06D81A0B02F16F07FF0002F16D
:1056F0006E0590E7B2F5AA7F06D8DA0B02F17807BB
:10570000FF0002F1770586E740F25450824206D846
:105710009A0C02F17D07FF0002F17C057BE74FF454
:105720007E777E2577E743F001016160136063E7D0
:10573000D8050020E0050020E4090020700E0020BC
:105740009368002B73D02DE9F04F8B8983B00C4602
:1057500019070090164626D5226922B313F00200DD
:1057600035682CD04FF00009B04FC846B246B84556
:1057700043464A4628BF3B460098B8F1000F50D038
:10578000E169666AB047002858DDDAF808301B1A6C
:105790008144A8EB0008CAF80830002BE7D10020AC
:1057A00003B0BDE8F08F21460098FEF705FD002804
:1057B00040F03381A389356813F00200D2D113F091
:1057C000010945D14F46019637B39A05D4F80880B0
:1057D00040F183804745C346C0F0AB8013F4906F1F
:1057E00040F0AC802068BA465A46494600F0BAFDFF
:1057F000A2682368A2EB08025B44A2602360019ABE
:105800009368A3EB0A03D144A7EB0A079360002B2C
:10581000C5D0A389002FD8D1D5F800906F6808357E
:10582000D2E7D5F80090D5F8048008359FE700202E
:10583000704721460098FFF791FD70B3B4F90C3022
:1058400043F040034FF0FF30A38103B0BDE8F08F79
:10585000814633464E46A8469A464D464EB380B3DF
:10586000206823696269B145CB4628BFB346984298
:105870005F4604D9A36813449B4500F3A680934573
:105880004BDB1346676AE16900982A46B847071E52
:10589000D4DDB9EB0709CCD00120DAF80830DB1BE6
:1058A0003D44F61BCAF80830002B3FF478AF002EB9
:1058B000D5D108F1080313E9600098460833002E9B
:1058C000F9D032460A21284600F062FC002800F098
:1058D000A1800130A0EB0509C2E720682369984246
:1058E00002D863699F425DD2B84528BFB846424698
:1058F000494600F037FDA3682268A3EB0803424441
:10590000A36022600BB1C24679E721460098FFF7F9
:1059100025FD002892D1C24671E75A46294600F07B
:1059200021FDA2682368A2EB0B025B44A260236006
:10593000AFE72068B846BA46BB4655E762692068BB
:10594000216902EB4208A0EB010A08EBD8780AF1C2
:1059500001004FEA680838444045424684BF80460B
:1059600042465B0544D51146009800F047F983464E
:10597000002855D05246216900F05AFCA38923F42F
:10598000906343F08003A3810BEB0A00A8EB0A03AA
:10599000C4F810B0C4F814802060A360B846BA46BA
:1059A000BB4621E76FF00041B94228BF39464A465D
:1059B00091FBF3F10098666A03FB01F3E169B047DC
:1059C000B0F1000A3FF71BAF38E71A4629460193AA
:1059D00000F0C8FC2268019B00981A44226021460E
:1059E000FFF7BCFC019B00287FF428AF1F4650E75F
:1059F000009801F021F883460028C5D1009D216957
:105A00002846FFF7B7FDB4F90C300C2223F08003D1
:105A10002A6015E706F1010922E74FF0FF30BFE6E3
:105A2000009A0C231360B4F90C3009E700FCFF7FE7
:105A30002DE9F04110F538771BD0884600267D68A7
:105A4000BC68013D0FD4A389012B05F1FF3506D9B0
:105A5000B4F90E300133204601D0C04706436B1C19
:105A600004F16804EFD13F68002FE8D13046BDE86B
:105A7000F0813E463046BDE8F08100BF2DE9F84395
:105A800010F538771FD0884606464FF000097D682C
:105A9000BC68013D11D4A389012B05F1FF3508D95C
:105AA000B4F90E3001332146304602D0C04749EAEE
:105AB00000096B1C04F16804EDD13F68002FE6D1AA
:105AC0004846BDE8F883B9464846BDE8F88300BFBC
:105AD000044A054B1268506B002808BF1846F03086
